{
  "contracts/CrowdFunding.sol": {
    "crowdfunding": {
      "abi": [
        {
          "inputs": [],
          "stateMutability": "nonpayable",
          "type": "constructor"
        },
        {
          "anonymous": false,
          "inputs": [
            {
              "indexed": false,
              "internalType": "uint256",
              "name": "requestNo",
              "type": "uint256"
            },
            {
              "indexed": false,
              "internalType": "string",
              "name": "title",
              "type": "string"
            },
            {
              "indexed": false,
              "internalType": "string",
              "name": "description",
              "type": "string"
            },
            {
              "indexed": false,
              "internalType": "string",
              "name": "image",
              "type": "string"
            },
            {
              "indexed": false,
              "internalType": "address",
              "name": "recipient",
              "type": "address"
            },
            {
              "indexed": false,
              "internalType": "uint256",
              "name": "Amount",
              "type": "uint256"
            },
            {
              "indexed": false,
              "internalType": "uint256",
              "name": "voters",
              "type": "uint256"
            },
            {
              "indexed": false,
              "internalType": "bool",
              "name": "completed",
              "type": "bool"
            },
            {
              "indexed": true,
              "internalType": "uint256",
              "name": "timestamp",
              "type": "uint256"
            }
          ],
          "name": "RequestCreated",
          "type": "event"
        },
        {
          "anonymous": false,
          "inputs": [
            {
              "indexed": false,
              "internalType": "string",
              "name": "description",
              "type": "string"
            },
            {
              "indexed": false,
              "internalType": "string",
              "name": "image",
              "type": "string"
            },
            {
              "indexed": false,
              "internalType": "address",
              "name": "recipient",
              "type": "address"
            },
            {
              "indexed": false,
              "internalType": "uint256",
              "name": "target",
              "type": "uint256"
            },
            {
              "indexed": false,
              "internalType": "uint256",
              "name": "noOfVoters",
              "type": "uint256"
            },
            {
              "indexed": true,
              "internalType": "uint256",
              "name": "timestamp",
              "type": "uint256"
            }
          ],
          "name": "RequestPaid",
          "type": "event"
        },
        {
          "anonymous": false,
          "inputs": [
            {
              "indexed": true,
              "internalType": "address",
              "name": "contributer",
              "type": "address"
            },
            {
              "indexed": true,
              "internalType": "uint256",
              "name": "Amount",
              "type": "uint256"
            },
            {
              "indexed": true,
              "internalType": "uint256",
              "name": "timestamp",
              "type": "uint256"
            }
          ],
          "name": "Transcations",
          "type": "event"
        },
        {
          "inputs": [
            {
              "internalType": "uint256",
              "name": "requestNo",
              "type": "uint256"
            }
          ],
          "name": "checkCompleted",
          "outputs": [
            {
              "internalType": "bool",
              "name": "",
              "type": "bool"
            }
          ],
          "stateMutability": "view",
          "type": "function"
        },
        {
          "inputs": [
            {
              "internalType": "address",
              "name": "",
              "type": "address"
            }
          ],
          "name": "contributers",
          "outputs": [
            {
              "internalType": "bool",
              "name": "voted",
              "type": "bool"
            },
            {
              "internalType": "uint256",
              "name": "Amount",
              "type": "uint256"
            }
          ],
          "stateMutability": "view",
          "type": "function"
        },
        {
          "inputs": [
            {
              "internalType": "string",
              "name": "_title",
              "type": "string"
            },
            {
              "internalType": "string",
              "name": "_description",
              "type": "string"
            },
            {
              "internalType": "string",
              "name": "_image",
              "type": "string"
            },
            {
              "internalType": "address",
              "name": "_recipient",
              "type": "address"
            },
            {
              "internalType": "uint256",
              "name": "value",
              "type": "uint256"
            }
          ],
          "name": "createRequest",
          "outputs": [],
          "stateMutability": "nonpayable",
          "type": "function"
        },
        {
          "inputs": [],
          "name": "getAmountDonted",
          "outputs": [
            {
              "internalType": "uint256",
              "name": "",
              "type": "uint256"
            }
          ],
          "stateMutability": "view",
          "type": "function"
        },
        {
          "inputs": [],
          "name": "getBalance",
          "outputs": [
            {
              "internalType": "uint256",
              "name": "",
              "type": "uint256"
            }
          ],
          "stateMutability": "view",
          "type": "function"
        },
        {
          "inputs": [],
          "name": "getRefund",
          "outputs": [],
          "stateMutability": "nonpayable",
          "type": "function"
        },
        {
          "inputs": [
            {
              "internalType": "uint256",
              "name": "_requestNo",
              "type": "uint256"
            }
          ],
          "name": "makePayment",
          "outputs": [],
          "stateMutability": "nonpayable",
          "type": "function"
        },
        {
          "inputs": [
            {
              "internalType": "uint256",
              "name": "requestNo",
              "type": "uint256"
            }
          ],
          "name": "makeVote",
          "outputs": [],
          "stateMutability": "nonpayable",
          "type": "function"
        },
        {
          "inputs": [],
          "name": "manager",
          "outputs": [
            {
              "internalType": "address",
              "name": "",
              "type": "address"
            }
          ],
          "stateMutability": "view",
          "type": "function"
        },
        {
          "inputs": [],
          "name": "minimumContribution",
          "outputs": [
            {
              "internalType": "uint256",
              "name": "",
              "type": "uint256"
            }
          ],
          "stateMutability": "view",
          "type": "function"
        },
        {
          "inputs": [],
          "name": "noOfContributors",
          "outputs": [
            {
              "internalType": "uint256",
              "name": "",
              "type": "uint256"
            }
          ],
          "stateMutability": "view",
          "type": "function"
        },
        {
          "inputs": [],
          "name": "numRequest",
          "outputs": [
            {
              "internalType": "uint256",
              "name": "",
              "type": "uint256"
            }
          ],
          "stateMutability": "view",
          "type": "function"
        },
        {
          "inputs": [],
          "name": "raisedAmount",
          "outputs": [
            {
              "internalType": "uint256",
              "name": "",
              "type": "uint256"
            }
          ],
          "stateMutability": "view",
          "type": "function"
        },
        {
          "inputs": [
            {
              "internalType": "uint256",
              "name": "",
              "type": "uint256"
            }
          ],
          "name": "requests",
          "outputs": [
            {
              "internalType": "string",
              "name": "title",
              "type": "string"
            },
            {
              "internalType": "string",
              "name": "description",
              "type": "string"
            },
            {
              "internalType": "string",
              "name": "image",
              "type": "string"
            },
            {
              "internalType": "address",
              "name": "recipient",
              "type": "address"
            },
            {
              "internalType": "uint256",
              "name": "target",
              "type": "uint256"
            },
            {
              "internalType": "bool",
              "name": "completed",
              "type": "bool"
            },
            {
              "internalType": "uint256",
              "name": "noOfVoters",
              "type": "uint256"
            }
          ],
          "stateMutability": "view",
          "type": "function"
        },
        {
          "inputs": [],
          "name": "sendEth",
          "outputs": [],
          "stateMutability": "payable",
          "type": "function"
        },
        {
          "inputs": [],
          "name": "vaildForRefund",
          "outputs": [
            {
              "internalType": "bool",
              "name": "",
              "type": "bool"
            }
          ],
          "stateMutability": "view",
          "type": "function"
        }
      ],
      "evm": {
        "bytecode": {
          "linkReferences": {},
          "object": "608060405234801561001057600080fd5b50336000806101000a81548173ffffffffffffffffffffffffffffffffffffffff021916908373ffffffffffffffffffffffffffffffffffffffff160217905550600a600381905550611f24806100686000396000f3fe6080604052600436106100f35760003560e01c80635114cb521161008a578063a3acae3011610059578063a3acae3014610314578063b1b164311461033d578063b2d5ae4414610368578063c59ee1dc1461037f576100f3565b80635114cb521461025257806381d12c581461027b578063937e09b1146102be57806398da069f146102e9576100f3565b806334b66460116100c657806334b66460146101955780633eaf7591146101d3578063481c6a75146101fc5780634e260f6f14610227576100f3565b806306e99fef146100f857806312065fe0146101025780631318929d1461012d5780633439629e1461016a575b600080fd5b6101006103aa565b005b34801561010e57600080fd5b50610117610522565b6040516101249190611335565b60405180910390f35b34801561013957600080fd5b50610154600480360381019061014f9190611390565b61052a565b60405161016191906113d8565b60405180910390f35b34801561017657600080fd5b5061017f610575565b60405161018c91906113d8565b60405180910390f35b3480156101a157600080fd5b506101bc60048036038101906101b79190611451565b6105e3565b6040516101ca92919061147e565b60405180910390f35b3480156101df57600080fd5b506101fa60048036038101906101f59190611390565b610614565b005b34801561020857600080fd5b50610211610873565b60405161021e91906114b6565b60405180910390f35b34801561023357600080fd5b5061023c610897565b6040516102499190611335565b60405180910390f35b34801561025e57600080fd5b5061027960048036038101906102749190611390565b61089d565b005b34801561028757600080fd5b506102a2600480360381019061029d9190611390565b610b24565b6040516102b5979695949392919061156a565b60405180910390f35b3480156102ca57600080fd5b506102d3610d2b565b6040516102e09190611335565b60405180910390f35b3480156102f557600080fd5b506102fe610d31565b60405161030b9190611335565b60405180910390f35b34801561032057600080fd5b5061033b60048036038101906103369190611723565b610d7b565b005b34801561034957600080fd5b5061035261103c565b60405161035f9190611335565b60405180910390f35b34801561037457600080fd5b5061037d611042565b005b34801561038b57600080fd5b50610394611273565b6040516103a19190611335565b60405180910390f35b6000600660003373ffffffffffffffffffffffffffffffffffffffff1673ffffffffffffffffffffffffffffffffffffffff168152602001908152602001600020600101541415610469576002600081548092919061040890611821565b91905055506000600660003373ffffffffffffffffffffffffffffffffffffffff1673ffffffffffffffffffffffffffffffffffffffff16815260200190815260200160002060000160006101000a81548160ff0219169083151502179055505b346001600082825461047b919061186a565b9250508190555034600660003373ffffffffffffffffffffffffffffffffffffffff1673ffffffffffffffffffffffffffffffffffffffff16815260200190815260200160002060010160008282546104d4919061186a565b9250508190555042343373ffffffffffffffffffffffffffffffffffffffff167f58155a5b0cc47bdbf94d4291a6f30f95533e23ee90d19cc878437e94d8bfe27f60405160405180910390a4565b600047905090565b600080600560008481526020019081526020016000209050600015158160050160009054906101000a900460ff161515141561056a576000915050610570565b60019150505b919050565b6000801515600660003373ffffffffffffffffffffffffffffffffffffffff1673ffffffffffffffffffffffffffffffffffffffff16815260200190815260200160002060000160009054906101000a900460ff16151514156105db57600190506105e0565b600090505b90565b60066020528060005260406000206000915090508060000160009054906101000a900460ff16908060010154905082565b600354600660003373ffffffffffffffffffffffffffffffffffffffff1673ffffffffffffffffffffffffffffffffffffffff168152602001908152602001600020600101541161069a576040517f08c379a00000000000000000000000000000000000000000000000000000000081526004016106919061190c565b60405180910390fd5b6000600560008381526020019081526020016000209050600015158160070160003373ffffffffffffffffffffffffffffffffffffffff1673ffffffffffffffffffffffffffffffffffffffff16815260200190815260200160002060009054906101000a900460ff16151514610746576040517f08c379a000000000000000000000000000000000000000000000000000000000815260040161073d90611978565b60405180910390fd5b600015158160050160009054906101000a900460ff1615151461079e576040517f08c379a0000000000000000000000000000000000000000000000000000000008152600401610795906119e4565b60405180910390fd5b6001600660003373ffffffffffffffffffffffffffffffffffffffff1673ffffffffffffffffffffffffffffffffffffffff16815260200190815260200160002060000160006101000a81548160ff02191690831515021790555060018160070160003373ffffffffffffffffffffffffffffffffffffffff1673ffffffffffffffffffffffffffffffffffffffff16815260200190815260200160002060006101000a81548160ff0219169083151502179055506001816006016000828254610868919061186a565b925050819055505050565b60008054906101000a900473ffffffffffffffffffffffffffffffffffffffff1681565b60025481565b60008054906101000a900473ffffffffffffffffffffffffffffffffffffffff1673ffffffffffffffffffffffffffffffffffffffff163373ffffffffffffffffffffffffffffffffffffffff161461092b576040517f08c379a000000000000000000000000000000000000000000000000000000000815260040161092290611a76565b60405180910390fd5b600060056000838152602001908152602001600020905080600401546001541161098a576040517f08c379a000000000000000000000000000000000000000000000000000000000815260040161098190611ae2565b60405180910390fd5b600015158160050160009054906101000a900460ff161515146109e2576040517f08c379a00000000000000000000000000000000000000000000000000000000081526004016109d9906119e4565b60405180910390fd5b600280546109f09190611b31565b8160060154116109ff57600080fd5b60008160030160009054906101000a900473ffffffffffffffffffffffffffffffffffffffff1690508073ffffffffffffffffffffffffffffffffffffffff166108fc83600401549081150290604051600060405180830381858888f19350505050158015610a72573d6000803e3d6000fd5b5060018260050160006101000a81548160ff021916908315150217905550816004015460016000828254610aa69190611b62565b92505081905550427feecf3b6838b37a75f418a8615bea75c375f69bda9e436ab220c2ef3bd5cec65283600101846002018560030160009054906101000a900473ffffffffffffffffffffffffffffffffffffffff1686600401548760060154604051610b17959493929190611c8c565b60405180910390a2505050565b6005602052806000526040600020600091509050806000018054610b4790611bc5565b80601f0160208091040260200160405190810160405280929190818152602001828054610b7390611bc5565b8015610bc05780601f10610b9557610100808354040283529160200191610bc0565b820191906000526020600020905b815481529060010190602001808311610ba357829003601f168201915b505050505090806001018054610bd590611bc5565b80601f0160208091040260200160405190810160405280929190818152602001828054610c0190611bc5565b8015610c4e5780601f10610c2357610100808354040283529160200191610c4e565b820191906000526020600020905b815481529060010190602001808311610c3157829003601f168201915b505050505090806002018054610c6390611bc5565b80601f0160208091040260200160405190810160405280929190818152602001828054610c8f90611bc5565b8015610cdc5780601f10610cb157610100808354040283529160200191610cdc565b820191906000526020600020905b815481529060010190602001808311610cbf57829003601f168201915b5050505050908060030160009054906101000a900473ffffffffffffffffffffffffffffffffffffffff16908060040154908060050160009054906101000a900460ff16908060060154905087565b60035481565b6000600660003373ffffffffffffffffffffffffffffffffffffffff1673ffffffffffffffffffffffffffffffffffffffff16815260200190815260200160002060010154905090565b60008054906101000a900473ffffffffffffffffffffffffffffffffffffffff1673ffffffffffffffffffffffffffffffffffffffff163373ffffffffffffffffffffffffffffffffffffffff1614610e09576040517f08c379a0000000000000000000000000000000000000000000000000000000008152600401610e0090611a76565b60405180910390fd5b60008054906101000a900473ffffffffffffffffffffffffffffffffffffffff1673ffffffffffffffffffffffffffffffffffffffff168273ffffffffffffffffffffffffffffffffffffffff161415610e98576040517f08c379a0000000000000000000000000000000000000000000000000000000008152600401610e8f90611d39565b60405180910390fd5b8060015411610edc576040517f08c379a0000000000000000000000000000000000000000000000000000000008152600401610ed390611da5565b60405180910390fd5b6000600560006004548152602001908152602001600020905060046000815480929190610f0890611821565b919050555085816000019080519060200190610f25929190611279565b5084816001019080519060200190610f3e929190611279565b5083816002019080519060200190610f57929190611279565b50828160030160006101000a81548173ffffffffffffffffffffffffffffffffffffffff021916908373ffffffffffffffffffffffffffffffffffffffff16021790555081816004018190555060008160050160006101000a81548160ff02191690831515021790555060008160060181905550427f38675f3d93dfcc4237695f8df01fd19de8f4888a3f8c038bed933c401fcd50ab6001600454610ffc9190611b62565b888888888888600601548960050160009054906101000a900460ff1660405161102c989796959493929190611dc5565b60405180910390a2505050505050565b60045481565b600354600660003373ffffffffffffffffffffffffffffffffffffffff1673ffffffffffffffffffffffffffffffffffffffff168152602001908152602001600020600101541180156110e8575060001515600660003373ffffffffffffffffffffffffffffffffffffffff1673ffffffffffffffffffffffffffffffffffffffff16815260200190815260200160002060000160009054906101000a900460ff161515145b611127576040517f08c379a000000000000000000000000000000000000000000000000000000000815260040161111e90611ea4565b60405180910390fd5b60003390508073ffffffffffffffffffffffffffffffffffffffff166108fc600660008473ffffffffffffffffffffffffffffffffffffffff1673ffffffffffffffffffffffffffffffffffffffff168152602001908152602001600020600101549081150290604051600060405180830381858888f193505050501580156111b4573d6000803e3d6000fd5b50600660008273ffffffffffffffffffffffffffffffffffffffff1673ffffffffffffffffffffffffffffffffffffffff16815260200190815260200160002060010154600160008282546112099190611b62565b925050819055506000600660008373ffffffffffffffffffffffffffffffffffffffff1673ffffffffffffffffffffffffffffffffffffffff168152602001908152602001600020600101819055506002600081548092919061126b90611ec4565b919050555050565b60015481565b82805461128590611bc5565b90600052602060002090601f0160209004810192826112a757600085556112ee565b82601f106112c057805160ff19168380011785556112ee565b828001600101855582156112ee579182015b828111156112ed5782518255916020019190600101906112d2565b5b5090506112fb91906112ff565b5090565b5b80821115611318576000816000905550600101611300565b5090565b6000819050919050565b61132f8161131c565b82525050565b600060208201905061134a6000830184611326565b92915050565b6000604051905090565b600080fd5b600080fd5b61136d8161131c565b811461137857600080fd5b50565b60008135905061138a81611364565b92915050565b6000602082840312156113a6576113a561135a565b5b60006113b48482850161137b565b91505092915050565b60008115159050919050565b6113d2816113bd565b82525050565b60006020820190506113ed60008301846113c9565b92915050565b600073ffffffffffffffffffffffffffffffffffffffff82169050919050565b600061141e826113f3565b9050919050565b61142e81611413565b811461143957600080fd5b50565b60008135905061144b81611425565b92915050565b6000602082840312156114675761146661135a565b5b60006114758482850161143c565b91505092915050565b600060408201905061149360008301856113c9565b6114a06020830184611326565b9392505050565b6114b081611413565b82525050565b60006020820190506114cb60008301846114a7565b92915050565b600081519050919050565b600082825260208201905092915050565b60005b8381101561150b5780820151818401526020810190506114f0565b8381111561151a576000848401525b50505050565b6000601f19601f8301169050919050565b600061153c826114d1565b61154681856114dc565b93506115568185602086016114ed565b61155f81611520565b840191505092915050565b600060e0820190508181036000830152611584818a611531565b905081810360208301526115988189611531565b905081810360408301526115ac8188611531565b90506115bb60608301876114a7565b6115c86080830186611326565b6115d560a08301856113c9565b6115e260c0830184611326565b98975050505050505050565b600080fd5b600080fd5b7f4e487b7100000000000000000000000000000000000000000000000000000000600052604160045260246000fd5b61163082611520565b810181811067ffffffffffffffff8211171561164f5761164e6115f8565b5b80604052505050565b6000611662611350565b905061166e8282611627565b919050565b600067ffffffffffffffff82111561168e5761168d6115f8565b5b61169782611520565b9050602081019050919050565b82818337600083830152505050565b60006116c66116c184611673565b611658565b9050828152602081018484840111156116e2576116e16115f3565b5b6116ed8482856116a4565b509392505050565b600082601f83011261170a576117096115ee565b5b813561171a8482602086016116b3565b91505092915050565b600080600080600060a0868803121561173f5761173e61135a565b5b600086013567ffffffffffffffff81111561175d5761175c61135f565b5b611769888289016116f5565b955050602086013567ffffffffffffffff81111561178a5761178961135f565b5b611796888289016116f5565b945050604086013567ffffffffffffffff8111156117b7576117b661135f565b5b6117c3888289016116f5565b93505060606117d48882890161143c565b92505060806117e58882890161137b565b9150509295509295909350565b7f4e487b7100000000000000000000000000000000000000000000000000000000600052601160045260246000fd5b600061182c8261131c565b91507fffffffffffffffffffffffffffffffffffffffffffffffffffffffffffffffff82141561185f5761185e6117f2565b5b600182019050919050565b60006118758261131c565b91506118808361131c565b9250827fffffffffffffffffffffffffffffffffffffffffffffffffffffffffffffffff038211156118b5576118b46117f2565b5b828201905092915050565b7f596f752063616e6e6f7420566f74650000000000000000000000000000000000600082015250565b60006118f6600f836114dc565b9150611901826118c0565b602082019050919050565b60006020820190508181036000830152611925816118e9565b9050919050565b7f596f75206861766520616c726561647920766f74656400000000000000000000600082015250565b60006119626016836114dc565b915061196d8261192c565b602082019050919050565b6000602082019050818103600083015261199181611955565b9050919050565b7f54686973207265717565737420697320636f6d706c6574656400000000000000600082015250565b60006119ce6019836114dc565b91506119d982611998565b602082019050919050565b600060208201905081810360008301526119fd816119c1565b9050919050565b7f4f6e6c79206d616e616765722063616e2063616c6c20746869732066756e637460008201527f696f6e0000000000000000000000000000000000000000000000000000000000602082015250565b6000611a606023836114dc565b9150611a6b82611a04565b604082019050919050565b60006020820190508181036000830152611a8f81611a53565b9050919050565b7f536f72727920776520646f6e2774206861766520656e6f756768206d6f6e6579600082015250565b6000611acc6020836114dc565b9150611ad782611a96565b602082019050919050565b60006020820190508181036000830152611afb81611abf565b9050919050565b7f4e487b7100000000000000000000000000000000000000000000000000000000600052601260045260246000fd5b6000611b3c8261131c565b9150611b478361131c565b925082611b5757611b56611b02565b5b828204905092915050565b6000611b6d8261131c565b9150611b788361131c565b925082821015611b8b57611b8a6117f2565b5b828203905092915050565b7f4e487b7100000000000000000000000000000000000000000000000000000000600052602260045260246000fd5b60006002820490506001821680611bdd57607f821691505b60208210811415611bf157611bf0611b96565b5b50919050565b60008190508160005260206000209050919050565b60008154611c1981611bc5565b611c2381866114dc565b94506001821660008114611c3e5760018114611c5057611c83565b60ff1983168652602086019350611c83565b611c5985611bf7565b60005b83811015611c7b57815481890152600182019150602081019050611c5c565b808801955050505b50505092915050565b600060a0820190508181036000830152611ca68188611c0c565b90508181036020830152611cba8187611c0c565b9050611cc960408301866114a7565b611cd66060830185611326565b611ce36080830184611326565b9695505050505050565b7f7468697320726563697069656e74206973206e6f7420616c6c6f776564000000600082015250565b6000611d23601d836114dc565b9150611d2e82611ced565b602082019050919050565b60006020820190508181036000830152611d5281611d16565b9050919050565b7f416d6f756e7420666f72207265717565737420697320746f6f20686967680000600082015250565b6000611d8f601e836114dc565b9150611d9a82611d59565b602082019050919050565b60006020820190508181036000830152611dbe81611d82565b9050919050565b600061010082019050611ddb600083018b611326565b8181036020830152611ded818a611531565b90508181036040830152611e018189611531565b90508181036060830152611e158188611531565b9050611e2460808301876114a7565b611e3160a0830186611326565b611e3e60c0830185611326565b611e4b60e08301846113c9565b9998505050505050505050565b7f596f7520617265206e6f7420656c696769626c6520666f7220726566756e6400600082015250565b6000611e8e601f836114dc565b9150611e9982611e58565b602082019050919050565b60006020820190508181036000830152611ebd81611e81565b9050919050565b6000611ecf8261131c565b91506000821415611ee357611ee26117f2565b5b60018203905091905056fea264697066735822122093063e0b3a36b712f5093861e38d443acb4dbcd59fc40453afe5d4d7470de24a64736f6c63430008090033",
          "opcodes": "PUSH1 0x80 PUSH1 0x40 MSTORE CALLVALUE DUP1 ISZERO PUSH2 0x10 JUMPI PUSH1 0x0 DUP1 REVERT JUMPDEST POP CALLER PUSH1 0x0 DUP1 PUSH2 0x100 EXP DUP2 SLOAD DUP2 PUSH20 0xFFFFFFFFFFFFFFFFFFFFFFFFFFFFFFFFFFFFFFFF MUL NOT AND SWAP1 DUP4 PUSH20 0xFFFFFFFFFFFFFFFFFFFFFFFFFFFFFFFFFFFFFFFF AND MUL OR SWAP1 SSTORE POP PUSH1 0xA PUSH1 0x3 DUP2 SWAP1 SSTORE POP PUSH2 0x1F24 DUP1 PUSH2 0x68 PUSH1 0x0 CODECOPY PUSH1 0x0 RETURN INVALID PUSH1 0x80 PUSH1 0x40 MSTORE PUSH1 0x4 CALLDATASIZE LT PUSH2 0xF3 JUMPI PUSH1 0x0 CALLDATALOAD PUSH1 0xE0 SHR DUP1 PUSH4 0x5114CB52 GT PUSH2 0x8A JUMPI DUP1 PUSH4 0xA3ACAE30 GT PUSH2 0x59 JUMPI DUP1 PUSH4 0xA3ACAE30 EQ PUSH2 0x314 JUMPI DUP1 PUSH4 0xB1B16431 EQ PUSH2 0x33D JUMPI DUP1 PUSH4 0xB2D5AE44 EQ PUSH2 0x368 JUMPI DUP1 PUSH4 0xC59EE1DC EQ PUSH2 0x37F JUMPI PUSH2 0xF3 JUMP JUMPDEST DUP1 PUSH4 0x5114CB52 EQ PUSH2 0x252 JUMPI DUP1 PUSH4 0x81D12C58 EQ PUSH2 0x27B JUMPI DUP1 PUSH4 0x937E09B1 EQ PUSH2 0x2BE JUMPI DUP1 PUSH4 0x98DA069F EQ PUSH2 0x2E9 JUMPI PUSH2 0xF3 JUMP JUMPDEST DUP1 PUSH4 0x34B66460 GT PUSH2 0xC6 JUMPI DUP1 PUSH4 0x34B66460 EQ PUSH2 0x195 JUMPI DUP1 PUSH4 0x3EAF7591 EQ PUSH2 0x1D3 JUMPI DUP1 PUSH4 0x481C6A75 EQ PUSH2 0x1FC JUMPI DUP1 PUSH4 0x4E260F6F EQ PUSH2 0x227 JUMPI PUSH2 0xF3 JUMP JUMPDEST DUP1 PUSH4 0x6E99FEF EQ PUSH2 0xF8 JUMPI DUP1 PUSH4 0x12065FE0 EQ PUSH2 0x102 JUMPI DUP1 PUSH4 0x1318929D EQ PUSH2 0x12D JUMPI DUP1 PUSH4 0x3439629E EQ PUSH2 0x16A JUMPI JUMPDEST PUSH1 0x0 DUP1 REVERT JUMPDEST PUSH2 0x100 PUSH2 0x3AA JUMP JUMPDEST STOP JUMPDEST CALLVALUE DUP1 ISZERO PUSH2 0x10E JUMPI PUSH1 0x0 DUP1 REVERT JUMPDEST POP PUSH2 0x117 PUSH2 0x522 JUMP JUMPDEST PUSH1 0x40 MLOAD PUSH2 0x124 SWAP2 SWAP1 PUSH2 0x1335 JUMP JUMPDEST PUSH1 0x40 MLOAD DUP1 SWAP2 SUB SWAP1 RETURN JUMPDEST CALLVALUE DUP1 ISZERO PUSH2 0x139 JUMPI PUSH1 0x0 DUP1 REVERT JUMPDEST POP PUSH2 0x154 PUSH1 0x4 DUP1 CALLDATASIZE SUB DUP2 ADD SWAP1 PUSH2 0x14F SWAP2 SWAP1 PUSH2 0x1390 JUMP JUMPDEST PUSH2 0x52A JUMP JUMPDEST PUSH1 0x40 MLOAD PUSH2 0x161 SWAP2 SWAP1 PUSH2 0x13D8 JUMP JUMPDEST PUSH1 0x40 MLOAD DUP1 SWAP2 SUB SWAP1 RETURN JUMPDEST CALLVALUE DUP1 ISZERO PUSH2 0x176 JUMPI PUSH1 0x0 DUP1 REVERT JUMPDEST POP PUSH2 0x17F PUSH2 0x575 JUMP JUMPDEST PUSH1 0x40 MLOAD PUSH2 0x18C SWAP2 SWAP1 PUSH2 0x13D8 JUMP JUMPDEST PUSH1 0x40 MLOAD DUP1 SWAP2 SUB SWAP1 RETURN JUMPDEST CALLVALUE DUP1 ISZERO PUSH2 0x1A1 JUMPI PUSH1 0x0 DUP1 REVERT JUMPDEST POP PUSH2 0x1BC PUSH1 0x4 DUP1 CALLDATASIZE SUB DUP2 ADD SWAP1 PUSH2 0x1B7 SWAP2 SWAP1 PUSH2 0x1451 JUMP JUMPDEST PUSH2 0x5E3 JUMP JUMPDEST PUSH1 0x40 MLOAD PUSH2 0x1CA SWAP3 SWAP2 SWAP1 PUSH2 0x147E JUMP JUMPDEST PUSH1 0x40 MLOAD DUP1 SWAP2 SUB SWAP1 RETURN JUMPDEST CALLVALUE DUP1 ISZERO PUSH2 0x1DF JUMPI PUSH1 0x0 DUP1 REVERT JUMPDEST POP PUSH2 0x1FA PUSH1 0x4 DUP1 CALLDATASIZE SUB DUP2 ADD SWAP1 PUSH2 0x1F5 SWAP2 SWAP1 PUSH2 0x1390 JUMP JUMPDEST PUSH2 0x614 JUMP JUMPDEST STOP JUMPDEST CALLVALUE DUP1 ISZERO PUSH2 0x208 JUMPI PUSH1 0x0 DUP1 REVERT JUMPDEST POP PUSH2 0x211 PUSH2 0x873 JUMP JUMPDEST PUSH1 0x40 MLOAD PUSH2 0x21E SWAP2 SWAP1 PUSH2 0x14B6 JUMP JUMPDEST PUSH1 0x40 MLOAD DUP1 SWAP2 SUB SWAP1 RETURN JUMPDEST CALLVALUE DUP1 ISZERO PUSH2 0x233 JUMPI PUSH1 0x0 DUP1 REVERT JUMPDEST POP PUSH2 0x23C PUSH2 0x897 JUMP JUMPDEST PUSH1 0x40 MLOAD PUSH2 0x249 SWAP2 SWAP1 PUSH2 0x1335 JUMP JUMPDEST PUSH1 0x40 MLOAD DUP1 SWAP2 SUB SWAP1 RETURN JUMPDEST CALLVALUE DUP1 ISZERO PUSH2 0x25E JUMPI PUSH1 0x0 DUP1 REVERT JUMPDEST POP PUSH2 0x279 PUSH1 0x4 DUP1 CALLDATASIZE SUB DUP2 ADD SWAP1 PUSH2 0x274 SWAP2 SWAP1 PUSH2 0x1390 JUMP JUMPDEST PUSH2 0x89D JUMP JUMPDEST STOP JUMPDEST CALLVALUE DUP1 ISZERO PUSH2 0x287 JUMPI PUSH1 0x0 DUP1 REVERT JUMPDEST POP PUSH2 0x2A2 PUSH1 0x4 DUP1 CALLDATASIZE SUB DUP2 ADD SWAP1 PUSH2 0x29D SWAP2 SWAP1 PUSH2 0x1390 JUMP JUMPDEST PUSH2 0xB24 JUMP JUMPDEST PUSH1 0x40 MLOAD PUSH2 0x2B5 SWAP8 SWAP7 SWAP6 SWAP5 SWAP4 SWAP3 SWAP2 SWAP1 PUSH2 0x156A JUMP JUMPDEST PUSH1 0x40 MLOAD DUP1 SWAP2 SUB SWAP1 RETURN JUMPDEST CALLVALUE DUP1 ISZERO PUSH2 0x2CA JUMPI PUSH1 0x0 DUP1 REVERT JUMPDEST POP PUSH2 0x2D3 PUSH2 0xD2B JUMP JUMPDEST PUSH1 0x40 MLOAD PUSH2 0x2E0 SWAP2 SWAP1 PUSH2 0x1335 JUMP JUMPDEST PUSH1 0x40 MLOAD DUP1 SWAP2 SUB SWAP1 RETURN JUMPDEST CALLVALUE DUP1 ISZERO PUSH2 0x2F5 JUMPI PUSH1 0x0 DUP1 REVERT JUMPDEST POP PUSH2 0x2FE PUSH2 0xD31 JUMP JUMPDEST PUSH1 0x40 MLOAD PUSH2 0x30B SWAP2 SWAP1 PUSH2 0x1335 JUMP JUMPDEST PUSH1 0x40 MLOAD DUP1 SWAP2 SUB SWAP1 RETURN JUMPDEST CALLVALUE DUP1 ISZERO PUSH2 0x320 JUMPI PUSH1 0x0 DUP1 REVERT JUMPDEST POP PUSH2 0x33B PUSH1 0x4 DUP1 CALLDATASIZE SUB DUP2 ADD SWAP1 PUSH2 0x336 SWAP2 SWAP1 PUSH2 0x1723 JUMP JUMPDEST PUSH2 0xD7B JUMP JUMPDEST STOP JUMPDEST CALLVALUE DUP1 ISZERO PUSH2 0x349 JUMPI PUSH1 0x0 DUP1 REVERT JUMPDEST POP PUSH2 0x352 PUSH2 0x103C JUMP JUMPDEST PUSH1 0x40 MLOAD PUSH2 0x35F SWAP2 SWAP1 PUSH2 0x1335 JUMP JUMPDEST PUSH1 0x40 MLOAD DUP1 SWAP2 SUB SWAP1 RETURN JUMPDEST CALLVALUE DUP1 ISZERO PUSH2 0x374 JUMPI PUSH1 0x0 DUP1 REVERT JUMPDEST POP PUSH2 0x37D PUSH2 0x1042 JUMP JUMPDEST STOP JUMPDEST CALLVALUE DUP1 ISZERO PUSH2 0x38B JUMPI PUSH1 0x0 DUP1 REVERT JUMPDEST POP PUSH2 0x394 PUSH2 0x1273 JUMP JUMPDEST PUSH1 0x40 MLOAD PUSH2 0x3A1 SWAP2 SWAP1 PUSH2 0x1335 JUMP JUMPDEST PUSH1 0x40 MLOAD DUP1 SWAP2 SUB SWAP1 RETURN JUMPDEST PUSH1 0x0 PUSH1 0x6 PUSH1 0x0 CALLER PUSH20 0xFFFFFFFFFFFFFFFFFFFFFFFFFFFFFFFFFFFFFFFF AND PUSH20 0xFFFFFFFFFFFFFFFFFFFFFFFFFFFFFFFFFFFFFFFF AND DUP2 MSTORE PUSH1 0x20 ADD SWAP1 DUP2 MSTORE PUSH1 0x20 ADD PUSH1 0x0 KECCAK256 PUSH1 0x1 ADD SLOAD EQ ISZERO PUSH2 0x469 JUMPI PUSH1 0x2 PUSH1 0x0 DUP2 SLOAD DUP1 SWAP3 SWAP2 SWAP1 PUSH2 0x408 SWAP1 PUSH2 0x1821 JUMP JUMPDEST SWAP2 SWAP1 POP SSTORE POP PUSH1 0x0 PUSH1 0x6 PUSH1 0x0 CALLER PUSH20 0xFFFFFFFFFFFFFFFFFFFFFFFFFFFFFFFFFFFFFFFF AND PUSH20 0xFFFFFFFFFFFFFFFFFFFFFFFFFFFFFFFFFFFFFFFF AND DUP2 MSTORE PUSH1 0x20 ADD SWAP1 DUP2 MSTORE PUSH1 0x20 ADD PUSH1 0x0 KECCAK256 PUSH1 0x0 ADD PUSH1 0x0 PUSH2 0x100 EXP DUP2 SLOAD DUP2 PUSH1 0xFF MUL NOT AND SWAP1 DUP4 ISZERO ISZERO MUL OR SWAP1 SSTORE POP JUMPDEST CALLVALUE PUSH1 0x1 PUSH1 0x0 DUP3 DUP3 SLOAD PUSH2 0x47B SWAP2 SWAP1 PUSH2 0x186A JUMP JUMPDEST SWAP3 POP POP DUP2 SWAP1 SSTORE POP CALLVALUE PUSH1 0x6 PUSH1 0x0 CALLER PUSH20 0xFFFFFFFFFFFFFFFFFFFFFFFFFFFFFFFFFFFFFFFF AND PUSH20 0xFFFFFFFFFFFFFFFFFFFFFFFFFFFFFFFFFFFFFFFF AND DUP2 MSTORE PUSH1 0x20 ADD SWAP1 DUP2 MSTORE PUSH1 0x20 ADD PUSH1 0x0 KECCAK256 PUSH1 0x1 ADD PUSH1 0x0 DUP3 DUP3 SLOAD PUSH2 0x4D4 SWAP2 SWAP1 PUSH2 0x186A JUMP JUMPDEST SWAP3 POP POP DUP2 SWAP1 SSTORE POP TIMESTAMP CALLVALUE CALLER PUSH20 0xFFFFFFFFFFFFFFFFFFFFFFFFFFFFFFFFFFFFFFFF AND PUSH32 0x58155A5B0CC47BDBF94D4291A6F30F95533E23EE90D19CC878437E94D8BFE27F PUSH1 0x40 MLOAD PUSH1 0x40 MLOAD DUP1 SWAP2 SUB SWAP1 LOG4 JUMP JUMPDEST PUSH1 0x0 SELFBALANCE SWAP1 POP SWAP1 JUMP JUMPDEST PUSH1 0x0 DUP1 PUSH1 0x5 PUSH1 0x0 DUP5 DUP2 MSTORE PUSH1 0x20 ADD SWAP1 DUP2 MSTORE PUSH1 0x20 ADD PUSH1 0x0 KECCAK256 SWAP1 POP PUSH1 0x0 ISZERO ISZERO DUP2 PUSH1 0x5 ADD PUSH1 0x0 SWAP1 SLOAD SWAP1 PUSH2 0x100 EXP SWAP1 DIV PUSH1 0xFF AND ISZERO ISZERO EQ ISZERO PUSH2 0x56A JUMPI PUSH1 0x0 SWAP2 POP POP PUSH2 0x570 JUMP JUMPDEST PUSH1 0x1 SWAP2 POP POP JUMPDEST SWAP2 SWAP1 POP JUMP JUMPDEST PUSH1 0x0 DUP1 ISZERO ISZERO PUSH1 0x6 PUSH1 0x0 CALLER PUSH20 0xFFFFFFFFFFFFFFFFFFFFFFFFFFFFFFFFFFFFFFFF AND PUSH20 0xFFFFFFFFFFFFFFFFFFFFFFFFFFFFFFFFFFFFFFFF AND DUP2 MSTORE PUSH1 0x20 ADD SWAP1 DUP2 MSTORE PUSH1 0x20 ADD PUSH1 0x0 KECCAK256 PUSH1 0x0 ADD PUSH1 0x0 SWAP1 SLOAD SWAP1 PUSH2 0x100 EXP SWAP1 DIV PUSH1 0xFF AND ISZERO ISZERO EQ ISZERO PUSH2 0x5DB JUMPI PUSH1 0x1 SWAP1 POP PUSH2 0x5E0 JUMP JUMPDEST PUSH1 0x0 SWAP1 POP JUMPDEST SWAP1 JUMP JUMPDEST PUSH1 0x6 PUSH1 0x20 MSTORE DUP1 PUSH1 0x0 MSTORE PUSH1 0x40 PUSH1 0x0 KECCAK256 PUSH1 0x0 SWAP2 POP SWAP1 POP DUP1 PUSH1 0x0 ADD PUSH1 0x0 SWAP1 SLOAD SWAP1 PUSH2 0x100 EXP SWAP1 DIV PUSH1 0xFF AND SWAP1 DUP1 PUSH1 0x1 ADD SLOAD SWAP1 POP DUP3 JUMP JUMPDEST PUSH1 0x3 SLOAD PUSH1 0x6 PUSH1 0x0 CALLER PUSH20 0xFFFFFFFFFFFFFFFFFFFFFFFFFFFFFFFFFFFFFFFF AND PUSH20 0xFFFFFFFFFFFFFFFFFFFFFFFFFFFFFFFFFFFFFFFF AND DUP2 MSTORE PUSH1 0x20 ADD SWAP1 DUP2 MSTORE PUSH1 0x20 ADD PUSH1 0x0 KECCAK256 PUSH1 0x1 ADD SLOAD GT PUSH2 0x69A JUMPI PUSH1 0x40 MLOAD PUSH32 0x8C379A000000000000000000000000000000000000000000000000000000000 DUP2 MSTORE PUSH1 0x4 ADD PUSH2 0x691 SWAP1 PUSH2 0x190C JUMP JUMPDEST PUSH1 0x40 MLOAD DUP1 SWAP2 SUB SWAP1 REVERT JUMPDEST PUSH1 0x0 PUSH1 0x5 PUSH1 0x0 DUP4 DUP2 MSTORE PUSH1 0x20 ADD SWAP1 DUP2 MSTORE PUSH1 0x20 ADD PUSH1 0x0 KECCAK256 SWAP1 POP PUSH1 0x0 ISZERO ISZERO DUP2 PUSH1 0x7 ADD PUSH1 0x0 CALLER PUSH20 0xFFFFFFFFFFFFFFFFFFFFFFFFFFFFFFFFFFFFFFFF AND PUSH20 0xFFFFFFFFFFFFFFFFFFFFFFFFFFFFFFFFFFFFFFFF AND DUP2 MSTORE PUSH1 0x20 ADD SWAP1 DUP2 MSTORE PUSH1 0x20 ADD PUSH1 0x0 KECCAK256 PUSH1 0x0 SWAP1 SLOAD SWAP1 PUSH2 0x100 EXP SWAP1 DIV PUSH1 0xFF AND ISZERO ISZERO EQ PUSH2 0x746 JUMPI PUSH1 0x40 MLOAD PUSH32 0x8C379A000000000000000000000000000000000000000000000000000000000 DUP2 MSTORE PUSH1 0x4 ADD PUSH2 0x73D SWAP1 PUSH2 0x1978 JUMP JUMPDEST PUSH1 0x40 MLOAD DUP1 SWAP2 SUB SWAP1 REVERT JUMPDEST PUSH1 0x0 ISZERO ISZERO DUP2 PUSH1 0x5 ADD PUSH1 0x0 SWAP1 SLOAD SWAP1 PUSH2 0x100 EXP SWAP1 DIV PUSH1 0xFF AND ISZERO ISZERO EQ PUSH2 0x79E JUMPI PUSH1 0x40 MLOAD PUSH32 0x8C379A000000000000000000000000000000000000000000000000000000000 DUP2 MSTORE PUSH1 0x4 ADD PUSH2 0x795 SWAP1 PUSH2 0x19E4 JUMP JUMPDEST PUSH1 0x40 MLOAD DUP1 SWAP2 SUB SWAP1 REVERT JUMPDEST PUSH1 0x1 PUSH1 0x6 PUSH1 0x0 CALLER PUSH20 0xFFFFFFFFFFFFFFFFFFFFFFFFFFFFFFFFFFFFFFFF AND PUSH20 0xFFFFFFFFFFFFFFFFFFFFFFFFFFFFFFFFFFFFFFFF AND DUP2 MSTORE PUSH1 0x20 ADD SWAP1 DUP2 MSTORE PUSH1 0x20 ADD PUSH1 0x0 KECCAK256 PUSH1 0x0 ADD PUSH1 0x0 PUSH2 0x100 EXP DUP2 SLOAD DUP2 PUSH1 0xFF MUL NOT AND SWAP1 DUP4 ISZERO ISZERO MUL OR SWAP1 SSTORE POP PUSH1 0x1 DUP2 PUSH1 0x7 ADD PUSH1 0x0 CALLER PUSH20 0xFFFFFFFFFFFFFFFFFFFFFFFFFFFFFFFFFFFFFFFF AND PUSH20 0xFFFFFFFFFFFFFFFFFFFFFFFFFFFFFFFFFFFFFFFF AND DUP2 MSTORE PUSH1 0x20 ADD SWAP1 DUP2 MSTORE PUSH1 0x20 ADD PUSH1 0x0 KECCAK256 PUSH1 0x0 PUSH2 0x100 EXP DUP2 SLOAD DUP2 PUSH1 0xFF MUL NOT AND SWAP1 DUP4 ISZERO ISZERO MUL OR SWAP1 SSTORE POP PUSH1 0x1 DUP2 PUSH1 0x6 ADD PUSH1 0x0 DUP3 DUP3 SLOAD PUSH2 0x868 SWAP2 SWAP1 PUSH2 0x186A JUMP JUMPDEST SWAP3 POP POP DUP2 SWAP1 SSTORE POP POP POP JUMP JUMPDEST PUSH1 0x0 DUP1 SLOAD SWAP1 PUSH2 0x100 EXP SWAP1 DIV PUSH20 0xFFFFFFFFFFFFFFFFFFFFFFFFFFFFFFFFFFFFFFFF AND DUP2 JUMP JUMPDEST PUSH1 0x2 SLOAD DUP2 JUMP JUMPDEST PUSH1 0x0 DUP1 SLOAD SWAP1 PUSH2 0x100 EXP SWAP1 DIV PUSH20 0xFFFFFFFFFFFFFFFFFFFFFFFFFFFFFFFFFFFFFFFF AND PUSH20 0xFFFFFFFFFFFFFFFFFFFFFFFFFFFFFFFFFFFFFFFF AND CALLER PUSH20 0xFFFFFFFFFFFFFFFFFFFFFFFFFFFFFFFFFFFFFFFF AND EQ PUSH2 0x92B JUMPI PUSH1 0x40 MLOAD PUSH32 0x8C379A000000000000000000000000000000000000000000000000000000000 DUP2 MSTORE PUSH1 0x4 ADD PUSH2 0x922 SWAP1 PUSH2 0x1A76 JUMP JUMPDEST PUSH1 0x40 MLOAD DUP1 SWAP2 SUB SWAP1 REVERT JUMPDEST PUSH1 0x0 PUSH1 0x5 PUSH1 0x0 DUP4 DUP2 MSTORE PUSH1 0x20 ADD SWAP1 DUP2 MSTORE PUSH1 0x20 ADD PUSH1 0x0 KECCAK256 SWAP1 POP DUP1 PUSH1 0x4 ADD SLOAD PUSH1 0x1 SLOAD GT PUSH2 0x98A JUMPI PUSH1 0x40 MLOAD PUSH32 0x8C379A000000000000000000000000000000000000000000000000000000000 DUP2 MSTORE PUSH1 0x4 ADD PUSH2 0x981 SWAP1 PUSH2 0x1AE2 JUMP JUMPDEST PUSH1 0x40 MLOAD DUP1 SWAP2 SUB SWAP1 REVERT JUMPDEST PUSH1 0x0 ISZERO ISZERO DUP2 PUSH1 0x5 ADD PUSH1 0x0 SWAP1 SLOAD SWAP1 PUSH2 0x100 EXP SWAP1 DIV PUSH1 0xFF AND ISZERO ISZERO EQ PUSH2 0x9E2 JUMPI PUSH1 0x40 MLOAD PUSH32 0x8C379A000000000000000000000000000000000000000000000000000000000 DUP2 MSTORE PUSH1 0x4 ADD PUSH2 0x9D9 SWAP1 PUSH2 0x19E4 JUMP JUMPDEST PUSH1 0x40 MLOAD DUP1 SWAP2 SUB SWAP1 REVERT JUMPDEST PUSH1 0x2 DUP1 SLOAD PUSH2 0x9F0 SWAP2 SWAP1 PUSH2 0x1B31 JUMP JUMPDEST DUP2 PUSH1 0x6 ADD SLOAD GT PUSH2 0x9FF JUMPI PUSH1 0x0 DUP1 REVERT JUMPDEST PUSH1 0x0 DUP2 PUSH1 0x3 ADD PUSH1 0x0 SWAP1 SLOAD SWAP1 PUSH2 0x100 EXP SWAP1 DIV PUSH20 0xFFFFFFFFFFFFFFFFFFFFFFFFFFFFFFFFFFFFFFFF AND SWAP1 POP DUP1 PUSH20 0xFFFFFFFFFFFFFFFFFFFFFFFFFFFFFFFFFFFFFFFF AND PUSH2 0x8FC DUP4 PUSH1 0x4 ADD SLOAD SWAP1 DUP2 ISZERO MUL SWAP1 PUSH1 0x40 MLOAD PUSH1 0x0 PUSH1 0x40 MLOAD DUP1 DUP4 SUB DUP2 DUP6 DUP9 DUP9 CALL SWAP4 POP POP POP POP ISZERO DUP1 ISZERO PUSH2 0xA72 JUMPI RETURNDATASIZE PUSH1 0x0 DUP1 RETURNDATACOPY RETURNDATASIZE PUSH1 0x0 REVERT JUMPDEST POP PUSH1 0x1 DUP3 PUSH1 0x5 ADD PUSH1 0x0 PUSH2 0x100 EXP DUP2 SLOAD DUP2 PUSH1 0xFF MUL NOT AND SWAP1 DUP4 ISZERO ISZERO MUL OR SWAP1 SSTORE POP DUP2 PUSH1 0x4 ADD SLOAD PUSH1 0x1 PUSH1 0x0 DUP3 DUP3 SLOAD PUSH2 0xAA6 SWAP2 SWAP1 PUSH2 0x1B62 JUMP JUMPDEST SWAP3 POP POP DUP2 SWAP1 SSTORE POP TIMESTAMP PUSH32 0xEECF3B6838B37A75F418A8615BEA75C375F69BDA9E436AB220C2EF3BD5CEC652 DUP4 PUSH1 0x1 ADD DUP5 PUSH1 0x2 ADD DUP6 PUSH1 0x3 ADD PUSH1 0x0 SWAP1 SLOAD SWAP1 PUSH2 0x100 EXP SWAP1 DIV PUSH20 0xFFFFFFFFFFFFFFFFFFFFFFFFFFFFFFFFFFFFFFFF AND DUP7 PUSH1 0x4 ADD SLOAD DUP8 PUSH1 0x6 ADD SLOAD PUSH1 0x40 MLOAD PUSH2 0xB17 SWAP6 SWAP5 SWAP4 SWAP3 SWAP2 SWAP1 PUSH2 0x1C8C JUMP JUMPDEST PUSH1 0x40 MLOAD DUP1 SWAP2 SUB SWAP1 LOG2 POP POP POP JUMP JUMPDEST PUSH1 0x5 PUSH1 0x20 MSTORE DUP1 PUSH1 0x0 MSTORE PUSH1 0x40 PUSH1 0x0 KECCAK256 PUSH1 0x0 SWAP2 POP SWAP1 POP DUP1 PUSH1 0x0 ADD DUP1 SLOAD PUSH2 0xB47 SWAP1 PUSH2 0x1BC5 JUMP JUMPDEST DUP1 PUSH1 0x1F ADD PUSH1 0x20 DUP1 SWAP2 DIV MUL PUSH1 0x20 ADD PUSH1 0x40 MLOAD SWAP1 DUP2 ADD PUSH1 0x40 MSTORE DUP1 SWAP3 SWAP2 SWAP1 DUP2 DUP2 MSTORE PUSH1 0x20 ADD DUP3 DUP1 SLOAD PUSH2 0xB73 SWAP1 PUSH2 0x1BC5 JUMP JUMPDEST DUP1 ISZERO PUSH2 0xBC0 JUMPI DUP1 PUSH1 0x1F LT PUSH2 0xB95 JUMPI PUSH2 0x100 DUP1 DUP4 SLOAD DIV MUL DUP4 MSTORE SWAP2 PUSH1 0x20 ADD SWAP2 PUSH2 0xBC0 JUMP JUMPDEST DUP3 ADD SWAP2 SWAP1 PUSH1 0x0 MSTORE PUSH1 0x20 PUSH1 0x0 KECCAK256 SWAP1 JUMPDEST DUP2 SLOAD DUP2 MSTORE SWAP1 PUSH1 0x1 ADD SWAP1 PUSH1 0x20 ADD DUP1 DUP4 GT PUSH2 0xBA3 JUMPI DUP3 SWAP1 SUB PUSH1 0x1F AND DUP3 ADD SWAP2 JUMPDEST POP POP POP POP POP SWAP1 DUP1 PUSH1 0x1 ADD DUP1 SLOAD PUSH2 0xBD5 SWAP1 PUSH2 0x1BC5 JUMP JUMPDEST DUP1 PUSH1 0x1F ADD PUSH1 0x20 DUP1 SWAP2 DIV MUL PUSH1 0x20 ADD PUSH1 0x40 MLOAD SWAP1 DUP2 ADD PUSH1 0x40 MSTORE DUP1 SWAP3 SWAP2 SWAP1 DUP2 DUP2 MSTORE PUSH1 0x20 ADD DUP3 DUP1 SLOAD PUSH2 0xC01 SWAP1 PUSH2 0x1BC5 JUMP JUMPDEST DUP1 ISZERO PUSH2 0xC4E JUMPI DUP1 PUSH1 0x1F LT PUSH2 0xC23 JUMPI PUSH2 0x100 DUP1 DUP4 SLOAD DIV MUL DUP4 MSTORE SWAP2 PUSH1 0x20 ADD SWAP2 PUSH2 0xC4E JUMP JUMPDEST DUP3 ADD SWAP2 SWAP1 PUSH1 0x0 MSTORE PUSH1 0x20 PUSH1 0x0 KECCAK256 SWAP1 JUMPDEST DUP2 SLOAD DUP2 MSTORE SWAP1 PUSH1 0x1 ADD SWAP1 PUSH1 0x20 ADD DUP1 DUP4 GT PUSH2 0xC31 JUMPI DUP3 SWAP1 SUB PUSH1 0x1F AND DUP3 ADD SWAP2 JUMPDEST POP POP POP POP POP SWAP1 DUP1 PUSH1 0x2 ADD DUP1 SLOAD PUSH2 0xC63 SWAP1 PUSH2 0x1BC5 JUMP JUMPDEST DUP1 PUSH1 0x1F ADD PUSH1 0x20 DUP1 SWAP2 DIV MUL PUSH1 0x20 ADD PUSH1 0x40 MLOAD SWAP1 DUP2 ADD PUSH1 0x40 MSTORE DUP1 SWAP3 SWAP2 SWAP1 DUP2 DUP2 MSTORE PUSH1 0x20 ADD DUP3 DUP1 SLOAD PUSH2 0xC8F SWAP1 PUSH2 0x1BC5 JUMP JUMPDEST DUP1 ISZERO PUSH2 0xCDC JUMPI DUP1 PUSH1 0x1F LT PUSH2 0xCB1 JUMPI PUSH2 0x100 DUP1 DUP4 SLOAD DIV MUL DUP4 MSTORE SWAP2 PUSH1 0x20 ADD SWAP2 PUSH2 0xCDC JUMP JUMPDEST DUP3 ADD SWAP2 SWAP1 PUSH1 0x0 MSTORE PUSH1 0x20 PUSH1 0x0 KECCAK256 SWAP1 JUMPDEST DUP2 SLOAD DUP2 MSTORE SWAP1 PUSH1 0x1 ADD SWAP1 PUSH1 0x20 ADD DUP1 DUP4 GT PUSH2 0xCBF JUMPI DUP3 SWAP1 SUB PUSH1 0x1F AND DUP3 ADD SWAP2 JUMPDEST POP POP POP POP POP SWAP1 DUP1 PUSH1 0x3 ADD PUSH1 0x0 SWAP1 SLOAD SWAP1 PUSH2 0x100 EXP SWAP1 DIV PUSH20 0xFFFFFFFFFFFFFFFFFFFFFFFFFFFFFFFFFFFFFFFF AND SWAP1 DUP1 PUSH1 0x4 ADD SLOAD SWAP1 DUP1 PUSH1 0x5 ADD PUSH1 0x0 SWAP1 SLOAD SWAP1 PUSH2 0x100 EXP SWAP1 DIV PUSH1 0xFF AND SWAP1 DUP1 PUSH1 0x6 ADD SLOAD SWAP1 POP DUP8 JUMP JUMPDEST PUSH1 0x3 SLOAD DUP2 JUMP JUMPDEST PUSH1 0x0 PUSH1 0x6 PUSH1 0x0 CALLER PUSH20 0xFFFFFFFFFFFFFFFFFFFFFFFFFFFFFFFFFFFFFFFF AND PUSH20 0xFFFFFFFFFFFFFFFFFFFFFFFFFFFFFFFFFFFFFFFF AND DUP2 MSTORE PUSH1 0x20 ADD SWAP1 DUP2 MSTORE PUSH1 0x20 ADD PUSH1 0x0 KECCAK256 PUSH1 0x1 ADD SLOAD SWAP1 POP SWAP1 JUMP JUMPDEST PUSH1 0x0 DUP1 SLOAD SWAP1 PUSH2 0x100 EXP SWAP1 DIV PUSH20 0xFFFFFFFFFFFFFFFFFFFFFFFFFFFFFFFFFFFFFFFF AND PUSH20 0xFFFFFFFFFFFFFFFFFFFFFFFFFFFFFFFFFFFFFFFF AND CALLER PUSH20 0xFFFFFFFFFFFFFFFFFFFFFFFFFFFFFFFFFFFFFFFF AND EQ PUSH2 0xE09 JUMPI PUSH1 0x40 MLOAD PUSH32 0x8C379A000000000000000000000000000000000000000000000000000000000 DUP2 MSTORE PUSH1 0x4 ADD PUSH2 0xE00 SWAP1 PUSH2 0x1A76 JUMP JUMPDEST PUSH1 0x40 MLOAD DUP1 SWAP2 SUB SWAP1 REVERT JUMPDEST PUSH1 0x0 DUP1 SLOAD SWAP1 PUSH2 0x100 EXP SWAP1 DIV PUSH20 0xFFFFFFFFFFFFFFFFFFFFFFFFFFFFFFFFFFFFFFFF AND PUSH20 0xFFFFFFFFFFFFFFFFFFFFFFFFFFFFFFFFFFFFFFFF AND DUP3 PUSH20 0xFFFFFFFFFFFFFFFFFFFFFFFFFFFFFFFFFFFFFFFF AND EQ ISZERO PUSH2 0xE98 JUMPI PUSH1 0x40 MLOAD PUSH32 0x8C379A000000000000000000000000000000000000000000000000000000000 DUP2 MSTORE PUSH1 0x4 ADD PUSH2 0xE8F SWAP1 PUSH2 0x1D39 JUMP JUMPDEST PUSH1 0x40 MLOAD DUP1 SWAP2 SUB SWAP1 REVERT JUMPDEST DUP1 PUSH1 0x1 SLOAD GT PUSH2 0xEDC JUMPI PUSH1 0x40 MLOAD PUSH32 0x8C379A000000000000000000000000000000000000000000000000000000000 DUP2 MSTORE PUSH1 0x4 ADD PUSH2 0xED3 SWAP1 PUSH2 0x1DA5 JUMP JUMPDEST PUSH1 0x40 MLOAD DUP1 SWAP2 SUB SWAP1 REVERT JUMPDEST PUSH1 0x0 PUSH1 0x5 PUSH1 0x0 PUSH1 0x4 SLOAD DUP2 MSTORE PUSH1 0x20 ADD SWAP1 DUP2 MSTORE PUSH1 0x20 ADD PUSH1 0x0 KECCAK256 SWAP1 POP PUSH1 0x4 PUSH1 0x0 DUP2 SLOAD DUP1 SWAP3 SWAP2 SWAP1 PUSH2 0xF08 SWAP1 PUSH2 0x1821 JUMP JUMPDEST SWAP2 SWAP1 POP SSTORE POP DUP6 DUP2 PUSH1 0x0 ADD SWAP1 DUP1 MLOAD SWAP1 PUSH1 0x20 ADD SWAP1 PUSH2 0xF25 SWAP3 SWAP2 SWAP1 PUSH2 0x1279 JUMP JUMPDEST POP DUP5 DUP2 PUSH1 0x1 ADD SWAP1 DUP1 MLOAD SWAP1 PUSH1 0x20 ADD SWAP1 PUSH2 0xF3E SWAP3 SWAP2 SWAP1 PUSH2 0x1279 JUMP JUMPDEST POP DUP4 DUP2 PUSH1 0x2 ADD SWAP1 DUP1 MLOAD SWAP1 PUSH1 0x20 ADD SWAP1 PUSH2 0xF57 SWAP3 SWAP2 SWAP1 PUSH2 0x1279 JUMP JUMPDEST POP DUP3 DUP2 PUSH1 0x3 ADD PUSH1 0x0 PUSH2 0x100 EXP DUP2 SLOAD DUP2 PUSH20 0xFFFFFFFFFFFFFFFFFFFFFFFFFFFFFFFFFFFFFFFF MUL NOT AND SWAP1 DUP4 PUSH20 0xFFFFFFFFFFFFFFFFFFFFFFFFFFFFFFFFFFFFFFFF AND MUL OR SWAP1 SSTORE POP DUP2 DUP2 PUSH1 0x4 ADD DUP2 SWAP1 SSTORE POP PUSH1 0x0 DUP2 PUSH1 0x5 ADD PUSH1 0x0 PUSH2 0x100 EXP DUP2 SLOAD DUP2 PUSH1 0xFF MUL NOT AND SWAP1 DUP4 ISZERO ISZERO MUL OR SWAP1 SSTORE POP PUSH1 0x0 DUP2 PUSH1 0x6 ADD DUP2 SWAP1 SSTORE POP TIMESTAMP PUSH32 0x38675F3D93DFCC4237695F8DF01FD19DE8F4888A3F8C038BED933C401FCD50AB PUSH1 0x1 PUSH1 0x4 SLOAD PUSH2 0xFFC SWAP2 SWAP1 PUSH2 0x1B62 JUMP JUMPDEST DUP9 DUP9 DUP9 DUP9 DUP9 DUP9 PUSH1 0x6 ADD SLOAD DUP10 PUSH1 0x5 ADD PUSH1 0x0 SWAP1 SLOAD SWAP1 PUSH2 0x100 EXP SWAP1 DIV PUSH1 0xFF AND PUSH1 0x40 MLOAD PUSH2 0x102C SWAP9 SWAP8 SWAP7 SWAP6 SWAP5 SWAP4 SWAP3 SWAP2 SWAP1 PUSH2 0x1DC5 JUMP JUMPDEST PUSH1 0x40 MLOAD DUP1 SWAP2 SUB SWAP1 LOG2 POP POP POP POP POP POP JUMP JUMPDEST PUSH1 0x4 SLOAD DUP2 JUMP JUMPDEST PUSH1 0x3 SLOAD PUSH1 0x6 PUSH1 0x0 CALLER PUSH20 0xFFFFFFFFFFFFFFFFFFFFFFFFFFFFFFFFFFFFFFFF AND PUSH20 0xFFFFFFFFFFFFFFFFFFFFFFFFFFFFFFFFFFFFFFFF AND DUP2 MSTORE PUSH1 0x20 ADD SWAP1 DUP2 MSTORE PUSH1 0x20 ADD PUSH1 0x0 KECCAK256 PUSH1 0x1 ADD SLOAD GT DUP1 ISZERO PUSH2 0x10E8 JUMPI POP PUSH1 0x0 ISZERO ISZERO PUSH1 0x6 PUSH1 0x0 CALLER PUSH20 0xFFFFFFFFFFFFFFFFFFFFFFFFFFFFFFFFFFFFFFFF AND PUSH20 0xFFFFFFFFFFFFFFFFFFFFFFFFFFFFFFFFFFFFFFFF AND DUP2 MSTORE PUSH1 0x20 ADD SWAP1 DUP2 MSTORE PUSH1 0x20 ADD PUSH1 0x0 KECCAK256 PUSH1 0x0 ADD PUSH1 0x0 SWAP1 SLOAD SWAP1 PUSH2 0x100 EXP SWAP1 DIV PUSH1 0xFF AND ISZERO ISZERO EQ JUMPDEST PUSH2 0x1127 JUMPI PUSH1 0x40 MLOAD PUSH32 0x8C379A000000000000000000000000000000000000000000000000000000000 DUP2 MSTORE PUSH1 0x4 ADD PUSH2 0x111E SWAP1 PUSH2 0x1EA4 JUMP JUMPDEST PUSH1 0x40 MLOAD DUP1 SWAP2 SUB SWAP1 REVERT JUMPDEST PUSH1 0x0 CALLER SWAP1 POP DUP1 PUSH20 0xFFFFFFFFFFFFFFFFFFFFFFFFFFFFFFFFFFFFFFFF AND PUSH2 0x8FC PUSH1 0x6 PUSH1 0x0 DUP5 PUSH20 0xFFFFFFFFFFFFFFFFFFFFFFFFFFFFFFFFFFFFFFFF AND PUSH20 0xFFFFFFFFFFFFFFFFFFFFFFFFFFFFFFFFFFFFFFFF AND DUP2 MSTORE PUSH1 0x20 ADD SWAP1 DUP2 MSTORE PUSH1 0x20 ADD PUSH1 0x0 KECCAK256 PUSH1 0x1 ADD SLOAD SWAP1 DUP2 ISZERO MUL SWAP1 PUSH1 0x40 MLOAD PUSH1 0x0 PUSH1 0x40 MLOAD DUP1 DUP4 SUB DUP2 DUP6 DUP9 DUP9 CALL SWAP4 POP POP POP POP ISZERO DUP1 ISZERO PUSH2 0x11B4 JUMPI RETURNDATASIZE PUSH1 0x0 DUP1 RETURNDATACOPY RETURNDATASIZE PUSH1 0x0 REVERT JUMPDEST POP PUSH1 0x6 PUSH1 0x0 DUP3 PUSH20 0xFFFFFFFFFFFFFFFFFFFFFFFFFFFFFFFFFFFFFFFF AND PUSH20 0xFFFFFFFFFFFFFFFFFFFFFFFFFFFFFFFFFFFFFFFF AND DUP2 MSTORE PUSH1 0x20 ADD SWAP1 DUP2 MSTORE PUSH1 0x20 ADD PUSH1 0x0 KECCAK256 PUSH1 0x1 ADD SLOAD PUSH1 0x1 PUSH1 0x0 DUP3 DUP3 SLOAD PUSH2 0x1209 SWAP2 SWAP1 PUSH2 0x1B62 JUMP JUMPDEST SWAP3 POP POP DUP2 SWAP1 SSTORE POP PUSH1 0x0 PUSH1 0x6 PUSH1 0x0 DUP4 PUSH20 0xFFFFFFFFFFFFFFFFFFFFFFFFFFFFFFFFFFFFFFFF AND PUSH20 0xFFFFFFFFFFFFFFFFFFFFFFFFFFFFFFFFFFFFFFFF AND DUP2 MSTORE PUSH1 0x20 ADD SWAP1 DUP2 MSTORE PUSH1 0x20 ADD PUSH1 0x0 KECCAK256 PUSH1 0x1 ADD DUP2 SWAP1 SSTORE POP PUSH1 0x2 PUSH1 0x0 DUP2 SLOAD DUP1 SWAP3 SWAP2 SWAP1 PUSH2 0x126B SWAP1 PUSH2 0x1EC4 JUMP JUMPDEST SWAP2 SWAP1 POP SSTORE POP POP JUMP JUMPDEST PUSH1 0x1 SLOAD DUP2 JUMP JUMPDEST DUP3 DUP1 SLOAD PUSH2 0x1285 SWAP1 PUSH2 0x1BC5 JUMP JUMPDEST SWAP1 PUSH1 0x0 MSTORE PUSH1 0x20 PUSH1 0x0 KECCAK256 SWAP1 PUSH1 0x1F ADD PUSH1 0x20 SWAP1 DIV DUP2 ADD SWAP3 DUP3 PUSH2 0x12A7 JUMPI PUSH1 0x0 DUP6 SSTORE PUSH2 0x12EE JUMP JUMPDEST DUP3 PUSH1 0x1F LT PUSH2 0x12C0 JUMPI DUP1 MLOAD PUSH1 0xFF NOT AND DUP4 DUP1 ADD OR DUP6 SSTORE PUSH2 0x12EE JUMP JUMPDEST DUP3 DUP1 ADD PUSH1 0x1 ADD DUP6 SSTORE DUP3 ISZERO PUSH2 0x12EE JUMPI SWAP2 DUP3 ADD JUMPDEST DUP3 DUP2 GT ISZERO PUSH2 0x12ED JUMPI DUP3 MLOAD DUP3 SSTORE SWAP2 PUSH1 0x20 ADD SWAP2 SWAP1 PUSH1 0x1 ADD SWAP1 PUSH2 0x12D2 JUMP JUMPDEST JUMPDEST POP SWAP1 POP PUSH2 0x12FB SWAP2 SWAP1 PUSH2 0x12FF JUMP JUMPDEST POP SWAP1 JUMP JUMPDEST JUMPDEST DUP1 DUP3 GT ISZERO PUSH2 0x1318 JUMPI PUSH1 0x0 DUP2 PUSH1 0x0 SWAP1 SSTORE POP PUSH1 0x1 ADD PUSH2 0x1300 JUMP JUMPDEST POP SWAP1 JUMP JUMPDEST PUSH1 0x0 DUP2 SWAP1 POP SWAP2 SWAP1 POP JUMP JUMPDEST PUSH2 0x132F DUP2 PUSH2 0x131C JUMP JUMPDEST DUP3 MSTORE POP POP JUMP JUMPDEST PUSH1 0x0 PUSH1 0x20 DUP3 ADD SWAP1 POP PUSH2 0x134A PUSH1 0x0 DUP4 ADD DUP5 PUSH2 0x1326 JUMP JUMPDEST SWAP3 SWAP2 POP POP JUMP JUMPDEST PUSH1 0x0 PUSH1 0x40 MLOAD SWAP1 POP SWAP1 JUMP JUMPDEST PUSH1 0x0 DUP1 REVERT JUMPDEST PUSH1 0x0 DUP1 REVERT JUMPDEST PUSH2 0x136D DUP2 PUSH2 0x131C JUMP JUMPDEST DUP2 EQ PUSH2 0x1378 JUMPI PUSH1 0x0 DUP1 REVERT JUMPDEST POP JUMP JUMPDEST PUSH1 0x0 DUP2 CALLDATALOAD SWAP1 POP PUSH2 0x138A DUP2 PUSH2 0x1364 JUMP JUMPDEST SWAP3 SWAP2 POP POP JUMP JUMPDEST PUSH1 0x0 PUSH1 0x20 DUP3 DUP5 SUB SLT ISZERO PUSH2 0x13A6 JUMPI PUSH2 0x13A5 PUSH2 0x135A JUMP JUMPDEST JUMPDEST PUSH1 0x0 PUSH2 0x13B4 DUP5 DUP3 DUP6 ADD PUSH2 0x137B JUMP JUMPDEST SWAP2 POP POP SWAP3 SWAP2 POP POP JUMP JUMPDEST PUSH1 0x0 DUP2 ISZERO ISZERO SWAP1 POP SWAP2 SWAP1 POP JUMP JUMPDEST PUSH2 0x13D2 DUP2 PUSH2 0x13BD JUMP JUMPDEST DUP3 MSTORE POP POP JUMP JUMPDEST PUSH1 0x0 PUSH1 0x20 DUP3 ADD SWAP1 POP PUSH2 0x13ED PUSH1 0x0 DUP4 ADD DUP5 PUSH2 0x13C9 JUMP JUMPDEST SWAP3 SWAP2 POP POP JUMP JUMPDEST PUSH1 0x0 PUSH20 0xFFFFFFFFFFFFFFFFFFFFFFFFFFFFFFFFFFFFFFFF DUP3 AND SWAP1 POP SWAP2 SWAP1 POP JUMP JUMPDEST PUSH1 0x0 PUSH2 0x141E DUP3 PUSH2 0x13F3 JUMP JUMPDEST SWAP1 POP SWAP2 SWAP1 POP JUMP JUMPDEST PUSH2 0x142E DUP2 PUSH2 0x1413 JUMP JUMPDEST DUP2 EQ PUSH2 0x1439 JUMPI PUSH1 0x0 DUP1 REVERT JUMPDEST POP JUMP JUMPDEST PUSH1 0x0 DUP2 CALLDATALOAD SWAP1 POP PUSH2 0x144B DUP2 PUSH2 0x1425 JUMP JUMPDEST SWAP3 SWAP2 POP POP JUMP JUMPDEST PUSH1 0x0 PUSH1 0x20 DUP3 DUP5 SUB SLT ISZERO PUSH2 0x1467 JUMPI PUSH2 0x1466 PUSH2 0x135A JUMP JUMPDEST JUMPDEST PUSH1 0x0 PUSH2 0x1475 DUP5 DUP3 DUP6 ADD PUSH2 0x143C JUMP JUMPDEST SWAP2 POP POP SWAP3 SWAP2 POP POP JUMP JUMPDEST PUSH1 0x0 PUSH1 0x40 DUP3 ADD SWAP1 POP PUSH2 0x1493 PUSH1 0x0 DUP4 ADD DUP6 PUSH2 0x13C9 JUMP JUMPDEST PUSH2 0x14A0 PUSH1 0x20 DUP4 ADD DUP5 PUSH2 0x1326 JUMP JUMPDEST SWAP4 SWAP3 POP POP POP JUMP JUMPDEST PUSH2 0x14B0 DUP2 PUSH2 0x1413 JUMP JUMPDEST DUP3 MSTORE POP POP JUMP JUMPDEST PUSH1 0x0 PUSH1 0x20 DUP3 ADD SWAP1 POP PUSH2 0x14CB PUSH1 0x0 DUP4 ADD DUP5 PUSH2 0x14A7 JUMP JUMPDEST SWAP3 SWAP2 POP POP JUMP JUMPDEST PUSH1 0x0 DUP2 MLOAD SWAP1 POP SWAP2 SWAP1 POP JUMP JUMPDEST PUSH1 0x0 DUP3 DUP3 MSTORE PUSH1 0x20 DUP3 ADD SWAP1 POP SWAP3 SWAP2 POP POP JUMP JUMPDEST PUSH1 0x0 JUMPDEST DUP4 DUP2 LT ISZERO PUSH2 0x150B JUMPI DUP1 DUP3 ADD MLOAD DUP2 DUP5 ADD MSTORE PUSH1 0x20 DUP2 ADD SWAP1 POP PUSH2 0x14F0 JUMP JUMPDEST DUP4 DUP2 GT ISZERO PUSH2 0x151A JUMPI PUSH1 0x0 DUP5 DUP5 ADD MSTORE JUMPDEST POP POP POP POP JUMP JUMPDEST PUSH1 0x0 PUSH1 0x1F NOT PUSH1 0x1F DUP4 ADD AND SWAP1 POP SWAP2 SWAP1 POP JUMP JUMPDEST PUSH1 0x0 PUSH2 0x153C DUP3 PUSH2 0x14D1 JUMP JUMPDEST PUSH2 0x1546 DUP2 DUP6 PUSH2 0x14DC JUMP JUMPDEST SWAP4 POP PUSH2 0x1556 DUP2 DUP6 PUSH1 0x20 DUP7 ADD PUSH2 0x14ED JUMP JUMPDEST PUSH2 0x155F DUP2 PUSH2 0x1520 JUMP JUMPDEST DUP5 ADD SWAP2 POP POP SWAP3 SWAP2 POP POP JUMP JUMPDEST PUSH1 0x0 PUSH1 0xE0 DUP3 ADD SWAP1 POP DUP2 DUP2 SUB PUSH1 0x0 DUP4 ADD MSTORE PUSH2 0x1584 DUP2 DUP11 PUSH2 0x1531 JUMP JUMPDEST SWAP1 POP DUP2 DUP2 SUB PUSH1 0x20 DUP4 ADD MSTORE PUSH2 0x1598 DUP2 DUP10 PUSH2 0x1531 JUMP JUMPDEST SWAP1 POP DUP2 DUP2 SUB PUSH1 0x40 DUP4 ADD MSTORE PUSH2 0x15AC DUP2 DUP9 PUSH2 0x1531 JUMP JUMPDEST SWAP1 POP PUSH2 0x15BB PUSH1 0x60 DUP4 ADD DUP8 PUSH2 0x14A7 JUMP JUMPDEST PUSH2 0x15C8 PUSH1 0x80 DUP4 ADD DUP7 PUSH2 0x1326 JUMP JUMPDEST PUSH2 0x15D5 PUSH1 0xA0 DUP4 ADD DUP6 PUSH2 0x13C9 JUMP JUMPDEST PUSH2 0x15E2 PUSH1 0xC0 DUP4 ADD DUP5 PUSH2 0x1326 JUMP JUMPDEST SWAP9 SWAP8 POP POP POP POP POP POP POP POP JUMP JUMPDEST PUSH1 0x0 DUP1 REVERT JUMPDEST PUSH1 0x0 DUP1 REVERT JUMPDEST PUSH32 0x4E487B7100000000000000000000000000000000000000000000000000000000 PUSH1 0x0 MSTORE PUSH1 0x41 PUSH1 0x4 MSTORE PUSH1 0x24 PUSH1 0x0 REVERT JUMPDEST PUSH2 0x1630 DUP3 PUSH2 0x1520 JUMP JUMPDEST DUP2 ADD DUP2 DUP2 LT PUSH8 0xFFFFFFFFFFFFFFFF DUP3 GT OR ISZERO PUSH2 0x164F JUMPI PUSH2 0x164E PUSH2 0x15F8 JUMP JUMPDEST JUMPDEST DUP1 PUSH1 0x40 MSTORE POP POP POP JUMP JUMPDEST PUSH1 0x0 PUSH2 0x1662 PUSH2 0x1350 JUMP JUMPDEST SWAP1 POP PUSH2 0x166E DUP3 DUP3 PUSH2 0x1627 JUMP JUMPDEST SWAP2 SWAP1 POP JUMP JUMPDEST PUSH1 0x0 PUSH8 0xFFFFFFFFFFFFFFFF DUP3 GT ISZERO PUSH2 0x168E JUMPI PUSH2 0x168D PUSH2 0x15F8 JUMP JUMPDEST JUMPDEST PUSH2 0x1697 DUP3 PUSH2 0x1520 JUMP JUMPDEST SWAP1 POP PUSH1 0x20 DUP2 ADD SWAP1 POP SWAP2 SWAP1 POP JUMP JUMPDEST DUP3 DUP2 DUP4 CALLDATACOPY PUSH1 0x0 DUP4 DUP4 ADD MSTORE POP POP POP JUMP JUMPDEST PUSH1 0x0 PUSH2 0x16C6 PUSH2 0x16C1 DUP5 PUSH2 0x1673 JUMP JUMPDEST PUSH2 0x1658 JUMP JUMPDEST SWAP1 POP DUP3 DUP2 MSTORE PUSH1 0x20 DUP2 ADD DUP5 DUP5 DUP5 ADD GT ISZERO PUSH2 0x16E2 JUMPI PUSH2 0x16E1 PUSH2 0x15F3 JUMP JUMPDEST JUMPDEST PUSH2 0x16ED DUP5 DUP3 DUP6 PUSH2 0x16A4 JUMP JUMPDEST POP SWAP4 SWAP3 POP POP POP JUMP JUMPDEST PUSH1 0x0 DUP3 PUSH1 0x1F DUP4 ADD SLT PUSH2 0x170A JUMPI PUSH2 0x1709 PUSH2 0x15EE JUMP JUMPDEST JUMPDEST DUP2 CALLDATALOAD PUSH2 0x171A DUP5 DUP3 PUSH1 0x20 DUP7 ADD PUSH2 0x16B3 JUMP JUMPDEST SWAP2 POP POP SWAP3 SWAP2 POP POP JUMP JUMPDEST PUSH1 0x0 DUP1 PUSH1 0x0 DUP1 PUSH1 0x0 PUSH1 0xA0 DUP7 DUP9 SUB SLT ISZERO PUSH2 0x173F JUMPI PUSH2 0x173E PUSH2 0x135A JUMP JUMPDEST JUMPDEST PUSH1 0x0 DUP7 ADD CALLDATALOAD PUSH8 0xFFFFFFFFFFFFFFFF DUP2 GT ISZERO PUSH2 0x175D JUMPI PUSH2 0x175C PUSH2 0x135F JUMP JUMPDEST JUMPDEST PUSH2 0x1769 DUP9 DUP3 DUP10 ADD PUSH2 0x16F5 JUMP JUMPDEST SWAP6 POP POP PUSH1 0x20 DUP7 ADD CALLDATALOAD PUSH8 0xFFFFFFFFFFFFFFFF DUP2 GT ISZERO PUSH2 0x178A JUMPI PUSH2 0x1789 PUSH2 0x135F JUMP JUMPDEST JUMPDEST PUSH2 0x1796 DUP9 DUP3 DUP10 ADD PUSH2 0x16F5 JUMP JUMPDEST SWAP5 POP POP PUSH1 0x40 DUP7 ADD CALLDATALOAD PUSH8 0xFFFFFFFFFFFFFFFF DUP2 GT ISZERO PUSH2 0x17B7 JUMPI PUSH2 0x17B6 PUSH2 0x135F JUMP JUMPDEST JUMPDEST PUSH2 0x17C3 DUP9 DUP3 DUP10 ADD PUSH2 0x16F5 JUMP JUMPDEST SWAP4 POP POP PUSH1 0x60 PUSH2 0x17D4 DUP9 DUP3 DUP10 ADD PUSH2 0x143C JUMP JUMPDEST SWAP3 POP POP PUSH1 0x80 PUSH2 0x17E5 DUP9 DUP3 DUP10 ADD PUSH2 0x137B JUMP JUMPDEST SWAP2 POP POP SWAP3 SWAP6 POP SWAP3 SWAP6 SWAP1 SWAP4 POP JUMP JUMPDEST PUSH32 0x4E487B7100000000000000000000000000000000000000000000000000000000 PUSH1 0x0 MSTORE PUSH1 0x11 PUSH1 0x4 MSTORE PUSH1 0x24 PUSH1 0x0 REVERT JUMPDEST PUSH1 0x0 PUSH2 0x182C DUP3 PUSH2 0x131C JUMP JUMPDEST SWAP2 POP PUSH32 0xFFFFFFFFFFFFFFFFFFFFFFFFFFFFFFFFFFFFFFFFFFFFFFFFFFFFFFFFFFFFFFFF DUP3 EQ ISZERO PUSH2 0x185F JUMPI PUSH2 0x185E PUSH2 0x17F2 JUMP JUMPDEST JUMPDEST PUSH1 0x1 DUP3 ADD SWAP1 POP SWAP2 SWAP1 POP JUMP JUMPDEST PUSH1 0x0 PUSH2 0x1875 DUP3 PUSH2 0x131C JUMP JUMPDEST SWAP2 POP PUSH2 0x1880 DUP4 PUSH2 0x131C JUMP JUMPDEST SWAP3 POP DUP3 PUSH32 0xFFFFFFFFFFFFFFFFFFFFFFFFFFFFFFFFFFFFFFFFFFFFFFFFFFFFFFFFFFFFFFFF SUB DUP3 GT ISZERO PUSH2 0x18B5 JUMPI PUSH2 0x18B4 PUSH2 0x17F2 JUMP JUMPDEST JUMPDEST DUP3 DUP3 ADD SWAP1 POP SWAP3 SWAP2 POP POP JUMP JUMPDEST PUSH32 0x596F752063616E6E6F7420566F74650000000000000000000000000000000000 PUSH1 0x0 DUP3 ADD MSTORE POP JUMP JUMPDEST PUSH1 0x0 PUSH2 0x18F6 PUSH1 0xF DUP4 PUSH2 0x14DC JUMP JUMPDEST SWAP2 POP PUSH2 0x1901 DUP3 PUSH2 0x18C0 JUMP JUMPDEST PUSH1 0x20 DUP3 ADD SWAP1 POP SWAP2 SWAP1 POP JUMP JUMPDEST PUSH1 0x0 PUSH1 0x20 DUP3 ADD SWAP1 POP DUP2 DUP2 SUB PUSH1 0x0 DUP4 ADD MSTORE PUSH2 0x1925 DUP2 PUSH2 0x18E9 JUMP JUMPDEST SWAP1 POP SWAP2 SWAP1 POP JUMP JUMPDEST PUSH32 0x596F75206861766520616C726561647920766F74656400000000000000000000 PUSH1 0x0 DUP3 ADD MSTORE POP JUMP JUMPDEST PUSH1 0x0 PUSH2 0x1962 PUSH1 0x16 DUP4 PUSH2 0x14DC JUMP JUMPDEST SWAP2 POP PUSH2 0x196D DUP3 PUSH2 0x192C JUMP JUMPDEST PUSH1 0x20 DUP3 ADD SWAP1 POP SWAP2 SWAP1 POP JUMP JUMPDEST PUSH1 0x0 PUSH1 0x20 DUP3 ADD SWAP1 POP DUP2 DUP2 SUB PUSH1 0x0 DUP4 ADD MSTORE PUSH2 0x1991 DUP2 PUSH2 0x1955 JUMP JUMPDEST SWAP1 POP SWAP2 SWAP1 POP JUMP JUMPDEST PUSH32 0x54686973207265717565737420697320636F6D706C6574656400000000000000 PUSH1 0x0 DUP3 ADD MSTORE POP JUMP JUMPDEST PUSH1 0x0 PUSH2 0x19CE PUSH1 0x19 DUP4 PUSH2 0x14DC JUMP JUMPDEST SWAP2 POP PUSH2 0x19D9 DUP3 PUSH2 0x1998 JUMP JUMPDEST PUSH1 0x20 DUP3 ADD SWAP1 POP SWAP2 SWAP1 POP JUMP JUMPDEST PUSH1 0x0 PUSH1 0x20 DUP3 ADD SWAP1 POP DUP2 DUP2 SUB PUSH1 0x0 DUP4 ADD MSTORE PUSH2 0x19FD DUP2 PUSH2 0x19C1 JUMP JUMPDEST SWAP1 POP SWAP2 SWAP1 POP JUMP JUMPDEST PUSH32 0x4F6E6C79206D616E616765722063616E2063616C6C20746869732066756E6374 PUSH1 0x0 DUP3 ADD MSTORE PUSH32 0x696F6E0000000000000000000000000000000000000000000000000000000000 PUSH1 0x20 DUP3 ADD MSTORE POP JUMP JUMPDEST PUSH1 0x0 PUSH2 0x1A60 PUSH1 0x23 DUP4 PUSH2 0x14DC JUMP JUMPDEST SWAP2 POP PUSH2 0x1A6B DUP3 PUSH2 0x1A04 JUMP JUMPDEST PUSH1 0x40 DUP3 ADD SWAP1 POP SWAP2 SWAP1 POP JUMP JUMPDEST PUSH1 0x0 PUSH1 0x20 DUP3 ADD SWAP1 POP DUP2 DUP2 SUB PUSH1 0x0 DUP4 ADD MSTORE PUSH2 0x1A8F DUP2 PUSH2 0x1A53 JUMP JUMPDEST SWAP1 POP SWAP2 SWAP1 POP JUMP JUMPDEST PUSH32 0x536F72727920776520646F6E2774206861766520656E6F756768206D6F6E6579 PUSH1 0x0 DUP3 ADD MSTORE POP JUMP JUMPDEST PUSH1 0x0 PUSH2 0x1ACC PUSH1 0x20 DUP4 PUSH2 0x14DC JUMP JUMPDEST SWAP2 POP PUSH2 0x1AD7 DUP3 PUSH2 0x1A96 JUMP JUMPDEST PUSH1 0x20 DUP3 ADD SWAP1 POP SWAP2 SWAP1 POP JUMP JUMPDEST PUSH1 0x0 PUSH1 0x20 DUP3 ADD SWAP1 POP DUP2 DUP2 SUB PUSH1 0x0 DUP4 ADD MSTORE PUSH2 0x1AFB DUP2 PUSH2 0x1ABF JUMP JUMPDEST SWAP1 POP SWAP2 SWAP1 POP JUMP JUMPDEST PUSH32 0x4E487B7100000000000000000000000000000000000000000000000000000000 PUSH1 0x0 MSTORE PUSH1 0x12 PUSH1 0x4 MSTORE PUSH1 0x24 PUSH1 0x0 REVERT JUMPDEST PUSH1 0x0 PUSH2 0x1B3C DUP3 PUSH2 0x131C JUMP JUMPDEST SWAP2 POP PUSH2 0x1B47 DUP4 PUSH2 0x131C JUMP JUMPDEST SWAP3 POP DUP3 PUSH2 0x1B57 JUMPI PUSH2 0x1B56 PUSH2 0x1B02 JUMP JUMPDEST JUMPDEST DUP3 DUP3 DIV SWAP1 POP SWAP3 SWAP2 POP POP JUMP JUMPDEST PUSH1 0x0 PUSH2 0x1B6D DUP3 PUSH2 0x131C JUMP JUMPDEST SWAP2 POP PUSH2 0x1B78 DUP4 PUSH2 0x131C JUMP JUMPDEST SWAP3 POP DUP3 DUP3 LT ISZERO PUSH2 0x1B8B JUMPI PUSH2 0x1B8A PUSH2 0x17F2 JUMP JUMPDEST JUMPDEST DUP3 DUP3 SUB SWAP1 POP SWAP3 SWAP2 POP POP JUMP JUMPDEST PUSH32 0x4E487B7100000000000000000000000000000000000000000000000000000000 PUSH1 0x0 MSTORE PUSH1 0x22 PUSH1 0x4 MSTORE PUSH1 0x24 PUSH1 0x0 REVERT JUMPDEST PUSH1 0x0 PUSH1 0x2 DUP3 DIV SWAP1 POP PUSH1 0x1 DUP3 AND DUP1 PUSH2 0x1BDD JUMPI PUSH1 0x7F DUP3 AND SWAP2 POP JUMPDEST PUSH1 0x20 DUP3 LT DUP2 EQ ISZERO PUSH2 0x1BF1 JUMPI PUSH2 0x1BF0 PUSH2 0x1B96 JUMP JUMPDEST JUMPDEST POP SWAP2 SWAP1 POP JUMP JUMPDEST PUSH1 0x0 DUP2 SWAP1 POP DUP2 PUSH1 0x0 MSTORE PUSH1 0x20 PUSH1 0x0 KECCAK256 SWAP1 POP SWAP2 SWAP1 POP JUMP JUMPDEST PUSH1 0x0 DUP2 SLOAD PUSH2 0x1C19 DUP2 PUSH2 0x1BC5 JUMP JUMPDEST PUSH2 0x1C23 DUP2 DUP7 PUSH2 0x14DC JUMP JUMPDEST SWAP5 POP PUSH1 0x1 DUP3 AND PUSH1 0x0 DUP2 EQ PUSH2 0x1C3E JUMPI PUSH1 0x1 DUP2 EQ PUSH2 0x1C50 JUMPI PUSH2 0x1C83 JUMP JUMPDEST PUSH1 0xFF NOT DUP4 AND DUP7 MSTORE PUSH1 0x20 DUP7 ADD SWAP4 POP PUSH2 0x1C83 JUMP JUMPDEST PUSH2 0x1C59 DUP6 PUSH2 0x1BF7 JUMP JUMPDEST PUSH1 0x0 JUMPDEST DUP4 DUP2 LT ISZERO PUSH2 0x1C7B JUMPI DUP2 SLOAD DUP2 DUP10 ADD MSTORE PUSH1 0x1 DUP3 ADD SWAP2 POP PUSH1 0x20 DUP2 ADD SWAP1 POP PUSH2 0x1C5C JUMP JUMPDEST DUP1 DUP9 ADD SWAP6 POP POP POP JUMPDEST POP POP POP SWAP3 SWAP2 POP POP JUMP JUMPDEST PUSH1 0x0 PUSH1 0xA0 DUP3 ADD SWAP1 POP DUP2 DUP2 SUB PUSH1 0x0 DUP4 ADD MSTORE PUSH2 0x1CA6 DUP2 DUP9 PUSH2 0x1C0C JUMP JUMPDEST SWAP1 POP DUP2 DUP2 SUB PUSH1 0x20 DUP4 ADD MSTORE PUSH2 0x1CBA DUP2 DUP8 PUSH2 0x1C0C JUMP JUMPDEST SWAP1 POP PUSH2 0x1CC9 PUSH1 0x40 DUP4 ADD DUP7 PUSH2 0x14A7 JUMP JUMPDEST PUSH2 0x1CD6 PUSH1 0x60 DUP4 ADD DUP6 PUSH2 0x1326 JUMP JUMPDEST PUSH2 0x1CE3 PUSH1 0x80 DUP4 ADD DUP5 PUSH2 0x1326 JUMP JUMPDEST SWAP7 SWAP6 POP POP POP POP POP POP JUMP JUMPDEST PUSH32 0x7468697320726563697069656E74206973206E6F7420616C6C6F776564000000 PUSH1 0x0 DUP3 ADD MSTORE POP JUMP JUMPDEST PUSH1 0x0 PUSH2 0x1D23 PUSH1 0x1D DUP4 PUSH2 0x14DC JUMP JUMPDEST SWAP2 POP PUSH2 0x1D2E DUP3 PUSH2 0x1CED JUMP JUMPDEST PUSH1 0x20 DUP3 ADD SWAP1 POP SWAP2 SWAP1 POP JUMP JUMPDEST PUSH1 0x0 PUSH1 0x20 DUP3 ADD SWAP1 POP DUP2 DUP2 SUB PUSH1 0x0 DUP4 ADD MSTORE PUSH2 0x1D52 DUP2 PUSH2 0x1D16 JUMP JUMPDEST SWAP1 POP SWAP2 SWAP1 POP JUMP JUMPDEST PUSH32 0x416D6F756E7420666F72207265717565737420697320746F6F20686967680000 PUSH1 0x0 DUP3 ADD MSTORE POP JUMP JUMPDEST PUSH1 0x0 PUSH2 0x1D8F PUSH1 0x1E DUP4 PUSH2 0x14DC JUMP JUMPDEST SWAP2 POP PUSH2 0x1D9A DUP3 PUSH2 0x1D59 JUMP JUMPDEST PUSH1 0x20 DUP3 ADD SWAP1 POP SWAP2 SWAP1 POP JUMP JUMPDEST PUSH1 0x0 PUSH1 0x20 DUP3 ADD SWAP1 POP DUP2 DUP2 SUB PUSH1 0x0 DUP4 ADD MSTORE PUSH2 0x1DBE DUP2 PUSH2 0x1D82 JUMP JUMPDEST SWAP1 POP SWAP2 SWAP1 POP JUMP JUMPDEST PUSH1 0x0 PUSH2 0x100 DUP3 ADD SWAP1 POP PUSH2 0x1DDB PUSH1 0x0 DUP4 ADD DUP12 PUSH2 0x1326 JUMP JUMPDEST DUP2 DUP2 SUB PUSH1 0x20 DUP4 ADD MSTORE PUSH2 0x1DED DUP2 DUP11 PUSH2 0x1531 JUMP JUMPDEST SWAP1 POP DUP2 DUP2 SUB PUSH1 0x40 DUP4 ADD MSTORE PUSH2 0x1E01 DUP2 DUP10 PUSH2 0x1531 JUMP JUMPDEST SWAP1 POP DUP2 DUP2 SUB PUSH1 0x60 DUP4 ADD MSTORE PUSH2 0x1E15 DUP2 DUP9 PUSH2 0x1531 JUMP JUMPDEST SWAP1 POP PUSH2 0x1E24 PUSH1 0x80 DUP4 ADD DUP8 PUSH2 0x14A7 JUMP JUMPDEST PUSH2 0x1E31 PUSH1 0xA0 DUP4 ADD DUP7 PUSH2 0x1326 JUMP JUMPDEST PUSH2 0x1E3E PUSH1 0xC0 DUP4 ADD DUP6 PUSH2 0x1326 JUMP JUMPDEST PUSH2 0x1E4B PUSH1 0xE0 DUP4 ADD DUP5 PUSH2 0x13C9 JUMP JUMPDEST SWAP10 SWAP9 POP POP POP POP POP POP POP POP POP JUMP JUMPDEST PUSH32 0x596F7520617265206E6F7420656C696769626C6520666F7220726566756E6400 PUSH1 0x0 DUP3 ADD MSTORE POP JUMP JUMPDEST PUSH1 0x0 PUSH2 0x1E8E PUSH1 0x1F DUP4 PUSH2 0x14DC JUMP JUMPDEST SWAP2 POP PUSH2 0x1E99 DUP3 PUSH2 0x1E58 JUMP JUMPDEST PUSH1 0x20 DUP3 ADD SWAP1 POP SWAP2 SWAP1 POP JUMP JUMPDEST PUSH1 0x0 PUSH1 0x20 DUP3 ADD SWAP1 POP DUP2 DUP2 SUB PUSH1 0x0 DUP4 ADD MSTORE PUSH2 0x1EBD DUP2 PUSH2 0x1E81 JUMP JUMPDEST SWAP1 POP SWAP2 SWAP1 POP JUMP JUMPDEST PUSH1 0x0 PUSH2 0x1ECF DUP3 PUSH2 0x131C JUMP JUMPDEST SWAP2 POP PUSH1 0x0 DUP3 EQ ISZERO PUSH2 0x1EE3 JUMPI PUSH2 0x1EE2 PUSH2 0x17F2 JUMP JUMPDEST JUMPDEST PUSH1 0x1 DUP3 SUB SWAP1 POP SWAP2 SWAP1 POP JUMP INVALID LOG2 PUSH5 0x6970667358 0x22 SLT KECCAK256 SWAP4 MOD RETURNDATACOPY SIGNEXTEND GASPRICE CALLDATASIZE 0xB7 SLT CREATE2 MULMOD CODESIZE PUSH2 0xE38D DIFFICULTY GASPRICE 0xCB 0x4D 0xBC 0xD5 SWAP16 0xC4 DIV MSTORE8 0xAF 0xE5 0xD4 0xD7 SELFBALANCE 0xD 0xE2 0x4A PUSH5 0x736F6C6343 STOP ADDMOD MULMOD STOP CALLER "
        },
        "methodIdentifiers": {
          "checkCompleted(uint256)": "1318929d",
          "contributers(address)": "34b66460",
          "createRequest(string,string,string,address,uint256)": "a3acae30",
          "getAmountDonted()": "98da069f",
          "getBalance()": "12065fe0",
          "getRefund()": "b2d5ae44",
          "makePayment(uint256)": "5114cb52",
          "makeVote(uint256)": "3eaf7591",
          "manager()": "481c6a75",
          "minimumContribution()": "937e09b1",
          "noOfContributors()": "4e260f6f",
          "numRequest()": "b1b16431",
          "raisedAmount()": "c59ee1dc",
          "requests(uint256)": "81d12c58",
          "sendEth()": "06e99fef",
          "vaildForRefund()": "3439629e"
        }
      }
    }
  }
}