{
  "_format": "hh-sol-artifact-1",
  "contractName": "crowdfunding",
  "sourceName": "contracts/CrowdFunding.sol",
  "abi": [
    {
      "inputs": [],
      "stateMutability": "nonpayable",
      "type": "constructor"
    },
    {
      "anonymous": false,
      "inputs": [
        {
          "indexed": false,
          "internalType": "uint256",
          "name": "requestNo",
          "type": "uint256"
        },
        {
          "indexed": false,
          "internalType": "string",
          "name": "title",
          "type": "string"
        },
        {
          "indexed": false,
          "internalType": "string",
          "name": "description",
          "type": "string"
        },
        {
          "indexed": false,
          "internalType": "string",
          "name": "image",
          "type": "string"
        },
        {
          "indexed": false,
          "internalType": "address",
          "name": "recipient",
          "type": "address"
        },
        {
          "indexed": false,
          "internalType": "uint256",
          "name": "Amount",
          "type": "uint256"
        },
        {
          "indexed": false,
          "internalType": "uint256",
          "name": "voters",
          "type": "uint256"
        },
        {
          "indexed": false,
          "internalType": "bool",
          "name": "completed",
          "type": "bool"
        },
        {
          "indexed": true,
          "internalType": "uint256",
          "name": "timestamp",
          "type": "uint256"
        }
      ],
      "name": "RequestCreated",
      "type": "event"
    },
    {
      "anonymous": false,
      "inputs": [
        {
          "indexed": false,
          "internalType": "string",
          "name": "description",
          "type": "string"
        },
        {
          "indexed": false,
          "internalType": "string",
          "name": "image",
          "type": "string"
        },
        {
          "indexed": false,
          "internalType": "address",
          "name": "recipient",
          "type": "address"
        },
        {
          "indexed": false,
          "internalType": "uint256",
          "name": "target",
          "type": "uint256"
        },
        {
          "indexed": false,
          "internalType": "uint256",
          "name": "noOfVoters",
          "type": "uint256"
        },
        {
          "indexed": true,
          "internalType": "uint256",
          "name": "timestamp",
          "type": "uint256"
        }
      ],
      "name": "RequestPaid",
      "type": "event"
    },
    {
      "anonymous": false,
      "inputs": [
        {
          "indexed": true,
          "internalType": "address",
          "name": "contributer",
          "type": "address"
        },
        {
          "indexed": true,
          "internalType": "uint256",
          "name": "Amount",
          "type": "uint256"
        },
        {
          "indexed": true,
          "internalType": "uint256",
          "name": "timestamp",
          "type": "uint256"
        }
      ],
      "name": "Transcations",
      "type": "event"
    },
    {
      "inputs": [
        {
          "internalType": "uint256",
          "name": "requestNo",
          "type": "uint256"
        }
      ],
      "name": "checkCompleted",
      "outputs": [
        {
          "internalType": "bool",
          "name": "",
          "type": "bool"
        }
      ],
      "stateMutability": "view",
      "type": "function"
    },
    {
      "inputs": [
        {
          "internalType": "address",
          "name": "",
          "type": "address"
        }
      ],
      "name": "contributers",
      "outputs": [
        {
          "internalType": "bool",
          "name": "voted",
          "type": "bool"
        },
        {
          "internalType": "uint256",
          "name": "Amount",
          "type": "uint256"
        }
      ],
      "stateMutability": "view",
      "type": "function"
    },
    {
      "inputs": [
        {
          "internalType": "string",
          "name": "_title",
          "type": "string"
        },
        {
          "internalType": "string",
          "name": "_description",
          "type": "string"
        },
        {
          "internalType": "string",
          "name": "_image",
          "type": "string"
        },
        {
          "internalType": "address",
          "name": "_recipient",
          "type": "address"
        },
        {
          "internalType": "uint256",
          "name": "value",
          "type": "uint256"
        }
      ],
      "name": "createRequest",
      "outputs": [],
      "stateMutability": "nonpayable",
      "type": "function"
    },
    {
      "inputs": [],
      "name": "getAmountDonted",
      "outputs": [
        {
          "internalType": "uint256",
          "name": "",
          "type": "uint256"
        }
      ],
      "stateMutability": "view",
      "type": "function"
    },
    {
      "inputs": [],
      "name": "getBalance",
      "outputs": [
        {
          "internalType": "uint256",
          "name": "",
          "type": "uint256"
        }
      ],
      "stateMutability": "view",
      "type": "function"
    },
    {
      "inputs": [],
      "name": "getRefund",
      "outputs": [],
      "stateMutability": "nonpayable",
      "type": "function"
    },
    {
      "inputs": [
        {
          "internalType": "uint256",
          "name": "_requestNo",
          "type": "uint256"
        }
      ],
      "name": "makePayment",
      "outputs": [],
      "stateMutability": "nonpayable",
      "type": "function"
    },
    {
      "inputs": [
        {
          "internalType": "uint256",
          "name": "requestNo",
          "type": "uint256"
        }
      ],
      "name": "makeVote",
      "outputs": [],
      "stateMutability": "nonpayable",
      "type": "function"
    },
    {
      "inputs": [],
      "name": "manager",
      "outputs": [
        {
          "internalType": "address",
          "name": "",
          "type": "address"
        }
      ],
      "stateMutability": "view",
      "type": "function"
    },
    {
      "inputs": [],
      "name": "minimumContribution",
      "outputs": [
        {
          "internalType": "uint256",
          "name": "",
          "type": "uint256"
        }
      ],
      "stateMutability": "view",
      "type": "function"
    },
    {
      "inputs": [],
      "name": "noOfContributors",
      "outputs": [
        {
          "internalType": "uint256",
          "name": "",
          "type": "uint256"
        }
      ],
      "stateMutability": "view",
      "type": "function"
    },
    {
      "inputs": [],
      "name": "numRequest",
      "outputs": [
        {
          "internalType": "uint256",
          "name": "",
          "type": "uint256"
        }
      ],
      "stateMutability": "view",
      "type": "function"
    },
    {
      "inputs": [],
      "name": "raisedAmount",
      "outputs": [
        {
          "internalType": "uint256",
          "name": "",
          "type": "uint256"
        }
      ],
      "stateMutability": "view",
      "type": "function"
    },
    {
      "inputs": [
        {
          "internalType": "uint256",
          "name": "",
          "type": "uint256"
        }
      ],
      "name": "requests",
      "outputs": [
        {
          "internalType": "string",
          "name": "title",
          "type": "string"
        },
        {
          "internalType": "string",
          "name": "description",
          "type": "string"
        },
        {
          "internalType": "string",
          "name": "image",
          "type": "string"
        },
        {
          "internalType": "address",
          "name": "recipient",
          "type": "address"
        },
        {
          "internalType": "uint256",
          "name": "target",
          "type": "uint256"
        },
        {
          "internalType": "bool",
          "name": "completed",
          "type": "bool"
        },
        {
          "internalType": "uint256",
          "name": "noOfVoters",
          "type": "uint256"
        }
      ],
      "stateMutability": "view",
      "type": "function"
    },
    {
      "inputs": [],
      "name": "sendEth",
      "outputs": [],
      "stateMutability": "payable",
      "type": "function"
    },
    {
      "inputs": [],
      "name": "vaildForRefund",
      "outputs": [
        {
          "internalType": "bool",
          "name": "",
          "type": "bool"
        }
      ],
      "stateMutability": "view",
      "type": "function"
    }
  ],
  "bytecode": "0x608060405234801561001057600080fd5b50336000806101000a81548173ffffffffffffffffffffffffffffffffffffffff021916908373ffffffffffffffffffffffffffffffffffffffff160217905550600a600381905550611f24806100686000396000f3fe6080604052600436106100f35760003560e01c80635114cb521161008a578063a3acae3011610059578063a3acae3014610314578063b1b164311461033d578063b2d5ae4414610368578063c59ee1dc1461037f576100f3565b80635114cb521461025257806381d12c581461027b578063937e09b1146102be57806398da069f146102e9576100f3565b806334b66460116100c657806334b66460146101955780633eaf7591146101d3578063481c6a75146101fc5780634e260f6f14610227576100f3565b806306e99fef146100f857806312065fe0146101025780631318929d1461012d5780633439629e1461016a575b600080fd5b6101006103aa565b005b34801561010e57600080fd5b50610117610522565b6040516101249190611335565b60405180910390f35b34801561013957600080fd5b50610154600480360381019061014f9190611390565b61052a565b60405161016191906113d8565b60405180910390f35b34801561017657600080fd5b5061017f610575565b60405161018c91906113d8565b60405180910390f35b3480156101a157600080fd5b506101bc60048036038101906101b79190611451565b6105e3565b6040516101ca92919061147e565b60405180910390f35b3480156101df57600080fd5b506101fa60048036038101906101f59190611390565b610614565b005b34801561020857600080fd5b50610211610873565b60405161021e91906114b6565b60405180910390f35b34801561023357600080fd5b5061023c610897565b6040516102499190611335565b60405180910390f35b34801561025e57600080fd5b5061027960048036038101906102749190611390565b61089d565b005b34801561028757600080fd5b506102a2600480360381019061029d9190611390565b610b24565b6040516102b5979695949392919061156a565b60405180910390f35b3480156102ca57600080fd5b506102d3610d2b565b6040516102e09190611335565b60405180910390f35b3480156102f557600080fd5b506102fe610d31565b60405161030b9190611335565b60405180910390f35b34801561032057600080fd5b5061033b60048036038101906103369190611723565b610d7b565b005b34801561034957600080fd5b5061035261103c565b60405161035f9190611335565b60405180910390f35b34801561037457600080fd5b5061037d611042565b005b34801561038b57600080fd5b50610394611273565b6040516103a19190611335565b60405180910390f35b6000600660003373ffffffffffffffffffffffffffffffffffffffff1673ffffffffffffffffffffffffffffffffffffffff168152602001908152602001600020600101541415610469576002600081548092919061040890611821565b91905055506000600660003373ffffffffffffffffffffffffffffffffffffffff1673ffffffffffffffffffffffffffffffffffffffff16815260200190815260200160002060000160006101000a81548160ff0219169083151502179055505b346001600082825461047b919061186a565b9250508190555034600660003373ffffffffffffffffffffffffffffffffffffffff1673ffffffffffffffffffffffffffffffffffffffff16815260200190815260200160002060010160008282546104d4919061186a565b9250508190555042343373ffffffffffffffffffffffffffffffffffffffff167f58155a5b0cc47bdbf94d4291a6f30f95533e23ee90d19cc878437e94d8bfe27f60405160405180910390a4565b600047905090565b600080600560008481526020019081526020016000209050600015158160050160009054906101000a900460ff161515141561056a576000915050610570565b60019150505b919050565b6000801515600660003373ffffffffffffffffffffffffffffffffffffffff1673ffffffffffffffffffffffffffffffffffffffff16815260200190815260200160002060000160009054906101000a900460ff16151514156105db57600190506105e0565b600090505b90565b60066020528060005260406000206000915090508060000160009054906101000a900460ff16908060010154905082565b600354600660003373ffffffffffffffffffffffffffffffffffffffff1673ffffffffffffffffffffffffffffffffffffffff168152602001908152602001600020600101541161069a576040517f08c379a00000000000000000000000000000000000000000000000000000000081526004016106919061190c565b60405180910390fd5b6000600560008381526020019081526020016000209050600015158160070160003373ffffffffffffffffffffffffffffffffffffffff1673ffffffffffffffffffffffffffffffffffffffff16815260200190815260200160002060009054906101000a900460ff16151514610746576040517f08c379a000000000000000000000000000000000000000000000000000000000815260040161073d90611978565b60405180910390fd5b600015158160050160009054906101000a900460ff1615151461079e576040517f08c379a0000000000000000000000000000000000000000000000000000000008152600401610795906119e4565b60405180910390fd5b6001600660003373ffffffffffffffffffffffffffffffffffffffff1673ffffffffffffffffffffffffffffffffffffffff16815260200190815260200160002060000160006101000a81548160ff02191690831515021790555060018160070160003373ffffffffffffffffffffffffffffffffffffffff1673ffffffffffffffffffffffffffffffffffffffff16815260200190815260200160002060006101000a81548160ff0219169083151502179055506001816006016000828254610868919061186a565b925050819055505050565b60008054906101000a900473ffffffffffffffffffffffffffffffffffffffff1681565b60025481565b60008054906101000a900473ffffffffffffffffffffffffffffffffffffffff1673ffffffffffffffffffffffffffffffffffffffff163373ffffffffffffffffffffffffffffffffffffffff161461092b576040517f08c379a000000000000000000000000000000000000000000000000000000000815260040161092290611a76565b60405180910390fd5b600060056000838152602001908152602001600020905080600401546001541161098a576040517f08c379a000000000000000000000000000000000000000000000000000000000815260040161098190611ae2565b60405180910390fd5b600015158160050160009054906101000a900460ff161515146109e2576040517f08c379a00000000000000000000000000000000000000000000000000000000081526004016109d9906119e4565b60405180910390fd5b600280546109f09190611b31565b8160060154116109ff57600080fd5b60008160030160009054906101000a900473ffffffffffffffffffffffffffffffffffffffff1690508073ffffffffffffffffffffffffffffffffffffffff166108fc83600401549081150290604051600060405180830381858888f19350505050158015610a72573d6000803e3d6000fd5b5060018260050160006101000a81548160ff021916908315150217905550816004015460016000828254610aa69190611b62565b92505081905550427feecf3b6838b37a75f418a8615bea75c375f69bda9e436ab220c2ef3bd5cec65283600101846002018560030160009054906101000a900473ffffffffffffffffffffffffffffffffffffffff1686600401548760060154604051610b17959493929190611c8c565b60405180910390a2505050565b6005602052806000526040600020600091509050806000018054610b4790611bc5565b80601f0160208091040260200160405190810160405280929190818152602001828054610b7390611bc5565b8015610bc05780601f10610b9557610100808354040283529160200191610bc0565b820191906000526020600020905b815481529060010190602001808311610ba357829003601f168201915b505050505090806001018054610bd590611bc5565b80601f0160208091040260200160405190810160405280929190818152602001828054610c0190611bc5565b8015610c4e5780601f10610c2357610100808354040283529160200191610c4e565b820191906000526020600020905b815481529060010190602001808311610c3157829003601f168201915b505050505090806002018054610c6390611bc5565b80601f0160208091040260200160405190810160405280929190818152602001828054610c8f90611bc5565b8015610cdc5780601f10610cb157610100808354040283529160200191610cdc565b820191906000526020600020905b815481529060010190602001808311610cbf57829003601f168201915b5050505050908060030160009054906101000a900473ffffffffffffffffffffffffffffffffffffffff16908060040154908060050160009054906101000a900460ff16908060060154905087565b60035481565b6000600660003373ffffffffffffffffffffffffffffffffffffffff1673ffffffffffffffffffffffffffffffffffffffff16815260200190815260200160002060010154905090565b60008054906101000a900473ffffffffffffffffffffffffffffffffffffffff1673ffffffffffffffffffffffffffffffffffffffff163373ffffffffffffffffffffffffffffffffffffffff1614610e09576040517f08c379a0000000000000000000000000000000000000000000000000000000008152600401610e0090611a76565b60405180910390fd5b60008054906101000a900473ffffffffffffffffffffffffffffffffffffffff1673ffffffffffffffffffffffffffffffffffffffff168273ffffffffffffffffffffffffffffffffffffffff161415610e98576040517f08c379a0000000000000000000000000000000000000000000000000000000008152600401610e8f90611d39565b60405180910390fd5b8060015411610edc576040517f08c379a0000000000000000000000000000000000000000000000000000000008152600401610ed390611da5565b60405180910390fd5b6000600560006004548152602001908152602001600020905060046000815480929190610f0890611821565b919050555085816000019080519060200190610f25929190611279565b5084816001019080519060200190610f3e929190611279565b5083816002019080519060200190610f57929190611279565b50828160030160006101000a81548173ffffffffffffffffffffffffffffffffffffffff021916908373ffffffffffffffffffffffffffffffffffffffff16021790555081816004018190555060008160050160006101000a81548160ff02191690831515021790555060008160060181905550427f38675f3d93dfcc4237695f8df01fd19de8f4888a3f8c038bed933c401fcd50ab6001600454610ffc9190611b62565b888888888888600601548960050160009054906101000a900460ff1660405161102c989796959493929190611dc5565b60405180910390a2505050505050565b60045481565b600354600660003373ffffffffffffffffffffffffffffffffffffffff1673ffffffffffffffffffffffffffffffffffffffff168152602001908152602001600020600101541180156110e8575060001515600660003373ffffffffffffffffffffffffffffffffffffffff1673ffffffffffffffffffffffffffffffffffffffff16815260200190815260200160002060000160009054906101000a900460ff161515145b611127576040517f08c379a000000000000000000000000000000000000000000000000000000000815260040161111e90611ea4565b60405180910390fd5b60003390508073ffffffffffffffffffffffffffffffffffffffff166108fc600660008473ffffffffffffffffffffffffffffffffffffffff1673ffffffffffffffffffffffffffffffffffffffff168152602001908152602001600020600101549081150290604051600060405180830381858888f193505050501580156111b4573d6000803e3d6000fd5b50600660008273ffffffffffffffffffffffffffffffffffffffff1673ffffffffffffffffffffffffffffffffffffffff16815260200190815260200160002060010154600160008282546112099190611b62565b925050819055506000600660008373ffffffffffffffffffffffffffffffffffffffff1673ffffffffffffffffffffffffffffffffffffffff168152602001908152602001600020600101819055506002600081548092919061126b90611ec4565b919050555050565b60015481565b82805461128590611bc5565b90600052602060002090601f0160209004810192826112a757600085556112ee565b82601f106112c057805160ff19168380011785556112ee565b828001600101855582156112ee579182015b828111156112ed5782518255916020019190600101906112d2565b5b5090506112fb91906112ff565b5090565b5b80821115611318576000816000905550600101611300565b5090565b6000819050919050565b61132f8161131c565b82525050565b600060208201905061134a6000830184611326565b92915050565b6000604051905090565b600080fd5b600080fd5b61136d8161131c565b811461137857600080fd5b50565b60008135905061138a81611364565b92915050565b6000602082840312156113a6576113a561135a565b5b60006113b48482850161137b565b91505092915050565b60008115159050919050565b6113d2816113bd565b82525050565b60006020820190506113ed60008301846113c9565b92915050565b600073ffffffffffffffffffffffffffffffffffffffff82169050919050565b600061141e826113f3565b9050919050565b61142e81611413565b811461143957600080fd5b50565b60008135905061144b81611425565b92915050565b6000602082840312156114675761146661135a565b5b60006114758482850161143c565b91505092915050565b600060408201905061149360008301856113c9565b6114a06020830184611326565b9392505050565b6114b081611413565b82525050565b60006020820190506114cb60008301846114a7565b92915050565b600081519050919050565b600082825260208201905092915050565b60005b8381101561150b5780820151818401526020810190506114f0565b8381111561151a576000848401525b50505050565b6000601f19601f8301169050919050565b600061153c826114d1565b61154681856114dc565b93506115568185602086016114ed565b61155f81611520565b840191505092915050565b600060e0820190508181036000830152611584818a611531565b905081810360208301526115988189611531565b905081810360408301526115ac8188611531565b90506115bb60608301876114a7565b6115c86080830186611326565b6115d560a08301856113c9565b6115e260c0830184611326565b98975050505050505050565b600080fd5b600080fd5b7f4e487b7100000000000000000000000000000000000000000000000000000000600052604160045260246000fd5b61163082611520565b810181811067ffffffffffffffff8211171561164f5761164e6115f8565b5b80604052505050565b6000611662611350565b905061166e8282611627565b919050565b600067ffffffffffffffff82111561168e5761168d6115f8565b5b61169782611520565b9050602081019050919050565b82818337600083830152505050565b60006116c66116c184611673565b611658565b9050828152602081018484840111156116e2576116e16115f3565b5b6116ed8482856116a4565b509392505050565b600082601f83011261170a576117096115ee565b5b813561171a8482602086016116b3565b91505092915050565b600080600080600060a0868803121561173f5761173e61135a565b5b600086013567ffffffffffffffff81111561175d5761175c61135f565b5b611769888289016116f5565b955050602086013567ffffffffffffffff81111561178a5761178961135f565b5b611796888289016116f5565b945050604086013567ffffffffffffffff8111156117b7576117b661135f565b5b6117c3888289016116f5565b93505060606117d48882890161143c565b92505060806117e58882890161137b565b9150509295509295909350565b7f4e487b7100000000000000000000000000000000000000000000000000000000600052601160045260246000fd5b600061182c8261131c565b91507fffffffffffffffffffffffffffffffffffffffffffffffffffffffffffffffff82141561185f5761185e6117f2565b5b600182019050919050565b60006118758261131c565b91506118808361131c565b9250827fffffffffffffffffffffffffffffffffffffffffffffffffffffffffffffffff038211156118b5576118b46117f2565b5b828201905092915050565b7f596f752063616e6e6f7420566f74650000000000000000000000000000000000600082015250565b60006118f6600f836114dc565b9150611901826118c0565b602082019050919050565b60006020820190508181036000830152611925816118e9565b9050919050565b7f596f75206861766520616c726561647920766f74656400000000000000000000600082015250565b60006119626016836114dc565b915061196d8261192c565b602082019050919050565b6000602082019050818103600083015261199181611955565b9050919050565b7f54686973207265717565737420697320636f6d706c6574656400000000000000600082015250565b60006119ce6019836114dc565b91506119d982611998565b602082019050919050565b600060208201905081810360008301526119fd816119c1565b9050919050565b7f4f6e6c79206d616e616765722063616e2063616c6c20746869732066756e637460008201527f696f6e0000000000000000000000000000000000000000000000000000000000602082015250565b6000611a606023836114dc565b9150611a6b82611a04565b604082019050919050565b60006020820190508181036000830152611a8f81611a53565b9050919050565b7f536f72727920776520646f6e2774206861766520656e6f756768206d6f6e6579600082015250565b6000611acc6020836114dc565b9150611ad782611a96565b602082019050919050565b60006020820190508181036000830152611afb81611abf565b9050919050565b7f4e487b7100000000000000000000000000000000000000000000000000000000600052601260045260246000fd5b6000611b3c8261131c565b9150611b478361131c565b925082611b5757611b56611b02565b5b828204905092915050565b6000611b6d8261131c565b9150611b788361131c565b925082821015611b8b57611b8a6117f2565b5b828203905092915050565b7f4e487b7100000000000000000000000000000000000000000000000000000000600052602260045260246000fd5b60006002820490506001821680611bdd57607f821691505b60208210811415611bf157611bf0611b96565b5b50919050565b60008190508160005260206000209050919050565b60008154611c1981611bc5565b611c2381866114dc565b94506001821660008114611c3e5760018114611c5057611c83565b60ff1983168652602086019350611c83565b611c5985611bf7565b60005b83811015611c7b57815481890152600182019150602081019050611c5c565b808801955050505b50505092915050565b600060a0820190508181036000830152611ca68188611c0c565b90508181036020830152611cba8187611c0c565b9050611cc960408301866114a7565b611cd66060830185611326565b611ce36080830184611326565b9695505050505050565b7f7468697320726563697069656e74206973206e6f7420616c6c6f776564000000600082015250565b6000611d23601d836114dc565b9150611d2e82611ced565b602082019050919050565b60006020820190508181036000830152611d5281611d16565b9050919050565b7f416d6f756e7420666f72207265717565737420697320746f6f20686967680000600082015250565b6000611d8f601e836114dc565b9150611d9a82611d59565b602082019050919050565b60006020820190508181036000830152611dbe81611d82565b9050919050565b600061010082019050611ddb600083018b611326565b8181036020830152611ded818a611531565b90508181036040830152611e018189611531565b90508181036060830152611e158188611531565b9050611e2460808301876114a7565b611e3160a0830186611326565b611e3e60c0830185611326565b611e4b60e08301846113c9565b9998505050505050505050565b7f596f7520617265206e6f7420656c696769626c6520666f7220726566756e6400600082015250565b6000611e8e601f836114dc565b9150611e9982611e58565b602082019050919050565b60006020820190508181036000830152611ebd81611e81565b9050919050565b6000611ecf8261131c565b91506000821415611ee357611ee26117f2565b5b60018203905091905056fea264697066735822122093063e0b3a36b712f5093861e38d443acb4dbcd59fc40453afe5d4d7470de24a64736f6c63430008090033",
  "linkReferences": {},
  "deployedLinkReferences": {}
}